{
  "_format": "hh-sol-artifact-1",
  "contractName": "FiveAmClapp",
  "sourceName": "contracts/FiveAmClapp.sol",
  "abi": [
    {
      "inputs": [],
      "stateMutability": "payable",
      "type": "constructor"
    },
    {
      "anonymous": false,
      "inputs": [
        {
          "indexed": true,
          "internalType": "address",
          "name": "owner",
          "type": "address"
        },
        {
          "indexed": true,
          "internalType": "address",
          "name": "approved",
          "type": "address"
        },
        {
          "indexed": true,
          "internalType": "uint256",
          "name": "tokenId",
          "type": "uint256"
        }
      ],
      "name": "Approval",
      "type": "event"
    },
    {
      "anonymous": false,
      "inputs": [
        {
          "indexed": true,
          "internalType": "address",
          "name": "owner",
          "type": "address"
        },
        {
          "indexed": true,
          "internalType": "address",
          "name": "operator",
          "type": "address"
        },
        {
          "indexed": false,
          "internalType": "bool",
          "name": "approved",
          "type": "bool"
        }
      ],
      "name": "ApprovalForAll",
      "type": "event"
    },
    {
      "anonymous": false,
      "inputs": [
        {
          "indexed": false,
          "internalType": "address",
          "name": "sender",
          "type": "address"
        },
        {
          "indexed": false,
          "internalType": "uint256",
          "name": "tokenId",
          "type": "uint256"
        }
      ],
      "name": "MembershipNFTMinted",
      "type": "event"
    },
    {
      "anonymous": false,
      "inputs": [
        {
          "indexed": true,
          "internalType": "address",
          "name": "from",
          "type": "address"
        },
        {
          "indexed": true,
          "internalType": "address",
          "name": "to",
          "type": "address"
        },
        {
          "indexed": true,
          "internalType": "uint256",
          "name": "tokenId",
          "type": "uint256"
        }
      ],
      "name": "Transfer",
      "type": "event"
    },
    {
      "inputs": [
        {
          "internalType": "address",
          "name": "to",
          "type": "address"
        },
        {
          "internalType": "uint256",
          "name": "tokenId",
          "type": "uint256"
        }
      ],
      "name": "approve",
      "outputs": [],
      "stateMutability": "nonpayable",
      "type": "function"
    },
    {
      "inputs": [
        {
          "internalType": "address",
          "name": "owner",
          "type": "address"
        }
      ],
      "name": "balanceOf",
      "outputs": [
        {
          "internalType": "uint256",
          "name": "",
          "type": "uint256"
        }
      ],
      "stateMutability": "view",
      "type": "function"
    },
    {
      "inputs": [],
      "name": "checkIfUserHasNFT",
      "outputs": [
        {
          "components": [
            {
              "internalType": "string",
              "name": "name",
              "type": "string"
            },
            {
              "internalType": "uint256",
              "name": "timeZone",
              "type": "uint256"
            },
            {
              "internalType": "uint256",
              "name": "wokeUp",
              "type": "uint256"
            },
            {
              "internalType": "uint256",
              "name": "attempts",
              "type": "uint256"
            },
            {
              "internalType": "uint256",
              "name": "totalStaked",
              "type": "uint256"
            },
            {
              "internalType": "uint256",
              "name": "totalClaimed",
              "type": "uint256"
            },
            {
              "internalType": "uint256",
              "name": "fiveAmTokens",
              "type": "uint256"
            }
          ],
          "internalType": "struct FiveAmClapp.MemberAttributes",
          "name": "",
          "type": "tuple"
        }
      ],
      "stateMutability": "view",
      "type": "function"
    },
    {
      "inputs": [],
      "name": "claimReward",
      "outputs": [],
      "stateMutability": "nonpayable",
      "type": "function"
    },
    {
      "inputs": [],
      "name": "didStake",
      "outputs": [
        {
          "internalType": "uint256",
          "name": "",
          "type": "uint256"
        }
      ],
      "stateMutability": "view",
      "type": "function"
    },
    {
      "inputs": [
        {
          "internalType": "uint256",
          "name": "tokenId",
          "type": "uint256"
        }
      ],
      "name": "getApproved",
      "outputs": [
        {
          "internalType": "address",
          "name": "",
          "type": "address"
        }
      ],
      "stateMutability": "view",
      "type": "function"
    },
    {
      "inputs": [],
      "name": "getRewardsPool",
      "outputs": [
        {
          "internalType": "uint256",
          "name": "",
          "type": "uint256"
        }
      ],
      "stateMutability": "view",
      "type": "function"
    },
    {
      "inputs": [],
      "name": "getTotalStakedPool",
      "outputs": [
        {
          "internalType": "uint256",
          "name": "",
          "type": "uint256"
        }
      ],
      "stateMutability": "view",
      "type": "function"
    },
    {
      "inputs": [
        {
          "internalType": "address",
          "name": "owner",
          "type": "address"
        },
        {
          "internalType": "address",
          "name": "operator",
          "type": "address"
        }
      ],
      "name": "isApprovedForAll",
      "outputs": [
        {
          "internalType": "bool",
          "name": "",
          "type": "bool"
        }
      ],
      "stateMutability": "view",
      "type": "function"
    },
    {
      "inputs": [
        {
          "internalType": "string",
          "name": "_name",
          "type": "string"
        },
        {
          "internalType": "uint256",
          "name": "_timeZone",
          "type": "uint256"
        }
      ],
      "name": "mintMembershipNFT",
      "outputs": [],
      "stateMutability": "nonpayable",
      "type": "function"
    },
    {
      "inputs": [],
      "name": "name",
      "outputs": [
        {
          "internalType": "string",
          "name": "",
          "type": "string"
        }
      ],
      "stateMutability": "view",
      "type": "function"
    },
    {
      "inputs": [
        {
          "internalType": "uint256",
          "name": "",
          "type": "uint256"
        }
      ],
      "name": "nftHolderAttributes",
      "outputs": [
        {
          "internalType": "string",
          "name": "name",
          "type": "string"
        },
        {
          "internalType": "uint256",
          "name": "timeZone",
          "type": "uint256"
        },
        {
          "internalType": "uint256",
          "name": "wokeUp",
          "type": "uint256"
        },
        {
          "internalType": "uint256",
          "name": "attempts",
          "type": "uint256"
        },
        {
          "internalType": "uint256",
          "name": "totalStaked",
          "type": "uint256"
        },
        {
          "internalType": "uint256",
          "name": "totalClaimed",
          "type": "uint256"
        },
        {
          "internalType": "uint256",
          "name": "fiveAmTokens",
          "type": "uint256"
        }
      ],
      "stateMutability": "view",
      "type": "function"
    },
    {
      "inputs": [
        {
          "internalType": "address",
          "name": "",
          "type": "address"
        }
      ],
      "name": "nftHolders",
      "outputs": [
        {
          "internalType": "uint256",
          "name": "",
          "type": "uint256"
        }
      ],
      "stateMutability": "view",
      "type": "function"
    },
    {
      "inputs": [
        {
          "internalType": "uint256",
          "name": "tokenId",
          "type": "uint256"
        }
      ],
      "name": "ownerOf",
      "outputs": [
        {
          "internalType": "address",
          "name": "",
          "type": "address"
        }
      ],
      "stateMutability": "view",
      "type": "function"
    },
    {
      "inputs": [
        {
          "internalType": "address",
          "name": "from",
          "type": "address"
        },
        {
          "internalType": "address",
          "name": "to",
          "type": "address"
        },
        {
          "internalType": "uint256",
          "name": "tokenId",
          "type": "uint256"
        }
      ],
      "name": "safeTransferFrom",
      "outputs": [],
      "stateMutability": "nonpayable",
      "type": "function"
    },
    {
      "inputs": [
        {
          "internalType": "address",
          "name": "from",
          "type": "address"
        },
        {
          "internalType": "address",
          "name": "to",
          "type": "address"
        },
        {
          "internalType": "uint256",
          "name": "tokenId",
          "type": "uint256"
        },
        {
          "internalType": "bytes",
          "name": "_data",
          "type": "bytes"
        }
      ],
      "name": "safeTransferFrom",
      "outputs": [],
      "stateMutability": "nonpayable",
      "type": "function"
    },
    {
      "inputs": [
        {
          "internalType": "address",
          "name": "operator",
          "type": "address"
        },
        {
          "internalType": "bool",
          "name": "approved",
          "type": "bool"
        }
      ],
      "name": "setApprovalForAll",
      "outputs": [],
      "stateMutability": "nonpayable",
      "type": "function"
    },
    {
      "inputs": [],
      "name": "stakeCommitment",
      "outputs": [],
      "stateMutability": "payable",
      "type": "function"
    },
    {
      "inputs": [
        {
          "internalType": "bytes4",
          "name": "interfaceId",
          "type": "bytes4"
        }
      ],
      "name": "supportsInterface",
      "outputs": [
        {
          "internalType": "bool",
          "name": "",
          "type": "bool"
        }
      ],
      "stateMutability": "view",
      "type": "function"
    },
    {
      "inputs": [],
      "name": "symbol",
      "outputs": [
        {
          "internalType": "string",
          "name": "",
          "type": "string"
        }
      ],
      "stateMutability": "view",
      "type": "function"
    },
    {
      "inputs": [
        {
          "internalType": "uint256",
          "name": "_tokenId",
          "type": "uint256"
        }
      ],
      "name": "tokenURI",
      "outputs": [
        {
          "internalType": "string",
          "name": "",
          "type": "string"
        }
      ],
      "stateMutability": "view",
      "type": "function"
    },
    {
      "inputs": [
        {
          "internalType": "address",
          "name": "from",
          "type": "address"
        },
        {
          "internalType": "address",
          "name": "to",
          "type": "address"
        },
        {
          "internalType": "uint256",
          "name": "tokenId",
          "type": "uint256"
        }
      ],
      "name": "transferFrom",
      "outputs": [],
      "stateMutability": "nonpayable",
      "type": "function"
    },
    {
      "inputs": [],
      "name": "withdrawCommitment",
      "outputs": [],
      "stateMutability": "nonpayable",
      "type": "function"
    }
  ],
  "bytecode": "0x60806040526040518060400160405280601881526020017f35414d20436c617070204d656d62657273686970204e465400000000000000008152506040518060400160405280600581526020017f35414d4654000000000000000000000000000000000000000000000000000000815250816000908051906020019062000088929190620000d7565b508060019080519060200190620000a1929190620000d7565b505050620000bb6006620000c160201b62002d2c1760201c565b620001ec565b6001816000016000828254019250508190555050565b828054620000e59062000187565b90600052602060002090601f01602090048101928262000109576000855562000155565b82601f106200012457805160ff191683800117855562000155565b8280016001018555821562000155579182015b828111156200015457825182559160200191906001019062000137565b5b50905062000164919062000168565b5090565b5b808211156200018357600081600090555060010162000169565b5090565b60006002820490506001821680620001a057607f821691505b60208210811415620001b757620001b6620001bd565b5b50919050565b7f4e487b7100000000000000000000000000000000000000000000000000000000600052602260045260246000fd5b615bdd80620001fc6000396000f3fe6080604052600436106101405760003560e01c80638e5a4ab6116100b6578063b88d4fde1161006f578063b88d4fde14610441578063be47ce661461046a578063c87b56dd14610493578063c8cf27f4146104d0578063e1453916146104fb578063e985e9c51461052657610140565b80638e5a4ab61461035e578063917980391461038957806395d89b411461039357806398da4c95146103be578063a22cb46514610401578063b88a802f1461042a57610140565b806342842e0e1161010857806342842e0e1461023c5780636352211e1461026557806370a08231146102a25780637df124a1146102df57806380a2e13c1461031c5780638b64fae11461034757610140565b806301ffc9a71461014557806306fdde0314610182578063081812fc146101ad578063095ea7b3146101ea57806323b872dd14610213575b600080fd5b34801561015157600080fd5b5061016c60048036038101906101679190613fcb565b610563565b604051610179919061510b565b60405180910390f35b34801561018e57600080fd5b50610197610645565b6040516101a49190615126565b60405180910390f35b3480156101b957600080fd5b506101d460048036038101906101cf9190614071565b6106d7565b6040516101e1919061507b565b60405180910390f35b3480156101f657600080fd5b50610211600480360381019061020c9190613f8f565b61075c565b005b34801561021f57600080fd5b5061023a60048036038101906102359190613e89565b610874565b005b34801561024857600080fd5b50610263600480360381019061025e9190613e89565b6108d4565b005b34801561027157600080fd5b5061028c60048036038101906102879190614071565b6108f4565b604051610299919061507b565b60405180910390f35b3480156102ae57600080fd5b506102c960048036038101906102c49190613dfb565b6109a6565b6040516102d69190615636565b60405180910390f35b3480156102eb57600080fd5b5061030660048036038101906103019190613dfb565b610a5e565b6040516103139190615636565b60405180910390f35b34801561032857600080fd5b50610331610a76565b60405161033e9190615636565b60405180910390f35b34801561035357600080fd5b5061035c610bcd565b005b34801561036a57600080fd5b50610373611389565b6040516103809190615636565b60405180910390f35b610391611414565b005b34801561039f57600080fd5b506103a8611ac7565b6040516103b59190615126565b60405180910390f35b3480156103ca57600080fd5b506103e560048036038101906103e09190614071565b611b59565b6040516103f89796959493929190615148565b60405180910390f35b34801561040d57600080fd5b5061042860048036038101906104239190613f53565b611c23565b005b34801561043657600080fd5b5061043f611c39565b005b34801561044d57600080fd5b5061046860048036038101906104639190613ed8565b612547565b005b34801561047657600080fd5b50610491600480360381019061048c919061401d565b6125a9565b005b34801561049f57600080fd5b506104ba60048036038101906104b59190614071565b612776565b6040516104c79190615126565b60405180910390f35b3480156104dc57600080fd5b506104e5612ab3565b6040516104f291906155f9565b60405180910390f35b34801561050757600080fd5b50610510612c0d565b60405161051d9190615636565b60405180910390f35b34801561053257600080fd5b5061054d60048036038101906105489190613e4d565b612c98565b60405161055a919061510b565b60405180910390f35b60007f80ac58cd000000000000000000000000000000000000000000000000000000007bffffffffffffffffffffffffffffffffffffffffffffffffffffffff1916827bffffffffffffffffffffffffffffffffffffffffffffffffffffffff1916148061062e57507f5b5e139f000000000000000000000000000000000000000000000000000000007bffffffffffffffffffffffffffffffffffffffffffffffffffffffff1916827bffffffffffffffffffffffffffffffffffffffffffffffffffffffff1916145b8061063e575061063d82612d42565b5b9050919050565b6060600080546106549061592b565b80601f01602080910402602001604051908101604052809291908181526020018280546106809061592b565b80156106cd5780601f106106a2576101008083540402835291602001916106cd565b820191906000526020600020905b8154815290600101906020018083116106b057829003601f168201915b5050505050905090565b60006106e282612dac565b610721576040517f08c379a0000000000000000000000000000000000000000000000000000000008152600401610718906153fe565b60405180910390fd5b6004600083815260200190815260200160002060009054906101000a900473ffffffffffffffffffffffffffffffffffffffff169050919050565b6000610767826108f4565b90508073ffffffffffffffffffffffffffffffffffffffff168373ffffffffffffffffffffffffffffffffffffffff1614156107d8576040517f08c379a00000000000000000000000000000000000000000000000000000000081526004016107cf9061547e565b60405180910390fd5b8073ffffffffffffffffffffffffffffffffffffffff166107f7612e18565b73ffffffffffffffffffffffffffffffffffffffff161480610826575061082581610820612e18565b612c98565b5b610865576040517f08c379a000000000000000000000000000000000000000000000000000000000815260040161085c9061531e565b60405180910390fd5b61086f8383612e20565b505050565b61088561087f612e18565b82612ed9565b6108c4576040517f08c379a00000000000000000000000000000000000000000000000000000000081526004016108bb9061549e565b60405180910390fd5b6108cf838383612fb7565b505050565b6108ef83838360405180602001604052806000815250612547565b505050565b6000806002600084815260200190815260200160002060009054906101000a900473ffffffffffffffffffffffffffffffffffffffff169050600073ffffffffffffffffffffffffffffffffffffffff168173ffffffffffffffffffffffffffffffffffffffff16141561099d576040517f08c379a00000000000000000000000000000000000000000000000000000000081526004016109949061535e565b60405180910390fd5b80915050919050565b60008073ffffffffffffffffffffffffffffffffffffffff168273ffffffffffffffffffffffffffffffffffffffff161415610a17576040517f08c379a0000000000000000000000000000000000000000000000000000000008152600401610a0e9061533e565b60405180910390fd5b600360008373ffffffffffffffffffffffffffffffffffffffff1673ffffffffffffffffffffffffffffffffffffffff168152602001908152602001600020549050919050565b60086020528060005260406000206000915090505481565b6000610b2b610a916012610e1061321390919063ffffffff16565b600d73__$ff63054a5fca904aa61f9270973a47c131$__63732a2ccf9091336040518363ffffffff1660e01b8152600401610acd929190615539565b60206040518083038186803b158015610ae557600080fd5b505af4158015610af9573d6000803e3d6000fd5b505050506040513d601f19601f82011682018060405250810190610b1d919061409a565b61322990919063ffffffff16565b421015610bc557600973__$ff63054a5fca904aa61f9270973a47c131$__63732a2ccf9091336040518363ffffffff1660e01b8152600401610b6e929190615539565b60206040518083038186803b158015610b8657600080fd5b505af4158015610b9a573d6000803e3d6000fd5b505050506040513d601f19601f82011682018060405250810190610bbe919061409a565b9050610bca565b600090505b90565b610c80610be66018610e1061321390919063ffffffff16565b600d73__$ff63054a5fca904aa61f9270973a47c131$__63732a2ccf9091336040518363ffffffff1660e01b8152600401610c22929190615539565b60206040518083038186803b158015610c3a57600080fd5b505af4158015610c4e573d6000803e3d6000fd5b505050506040513d601f19601f82011682018060405250810190610c72919061409a565b61322990919063ffffffff16565b4210610cc1576040517f08c379a0000000000000000000000000000000000000000000000000000000008152600401610cb8906152de565b60405180910390fd5b6000600973__$ff63054a5fca904aa61f9270973a47c131$__63732a2ccf9091336040518363ffffffff1660e01b8152600401610cff929190615539565b60206040518083038186803b158015610d1757600080fd5b505af4158015610d2b573d6000803e3d6000fd5b505050506040513d601f19601f82011682018060405250810190610d4f919061409a565b11610d8f576040517f08c379a0000000000000000000000000000000000000000000000000000000008152600401610d86906151be565b60405180910390fd5b6000600860003373ffffffffffffffffffffffffffffffffffffffff1673ffffffffffffffffffffffffffffffffffffffff1681526020019081526020016000205411610e11576040517f08c379a0000000000000000000000000000000000000000000000000000000008152600401610e08906154be565b60405180910390fd5b6000600860003373ffffffffffffffffffffffffffffffffffffffff1673ffffffffffffffffffffffffffffffffffffffff1681526020019081526020016000205490506000600760008381526020019081526020016000209050600081600101549050600d811015610f7157600573__$02df0db2a7fa1364a2877de9b5cd31a049$__633e239e1a610ec1610eb2610e108661321390919063ffffffff16565b4261322990919063ffffffff16565b6040518263ffffffff1660e01b8152600401610edd919061561b565b60206040518083038186803b158015610ef557600080fd5b505af4158015610f09573d6000803e3d6000fd5b505050506040513d601f19601f82011682018060405250810190610f2d91906140c3565b60ff1614610f70576040517f08c379a0000000000000000000000000000000000000000000000000000000008152600401610f679061537e565b60405180910390fd5b5b600d8110611085576000610f8f600c8361323f90919063ffffffff16565b9050600573__$02df0db2a7fa1364a2877de9b5cd31a049$__633e239e1a610fd4610fc5610e108661321390919063ffffffff16565b4261323f90919063ffffffff16565b6040518263ffffffff1660e01b8152600401610ff0919061561b565b60206040518083038186803b15801561100857600080fd5b505af415801561101c573d6000803e3d6000fd5b505050506040513d601f19601f8201168201806040525081019061104091906140c3565b60ff1614611083576040517f08c379a000000000000000000000000000000000000000000000000000000000815260040161107a9061537e565b60405180910390fd5b505b6000600973__$ff63054a5fca904aa61f9270973a47c131$__63732a2ccf9091336040518363ffffffff1660e01b81526004016110c3929190615539565b60206040518083038186803b1580156110db57600080fd5b505af41580156110ef573d6000803e3d6000fd5b505050506040513d601f19601f82011682018060405250810190611113919061409a565b9050600973__$ff63054a5fca904aa61f9270973a47c131$__63bc2b405c90913360006040518463ffffffff1660e01b815260040161115493929190615562565b60006040518083038186803b15801561116c57600080fd5b505af4158015611180573d6000803e3d6000fd5b5050505061119c6001846002015461322990919063ffffffff16565b83600201819055506111bc6001846006015461322990919063ffffffff16565b836006018190555060006112656001601173__$ff63054a5fca904aa61f9270973a47c131$__63732a2ccf9091336040518363ffffffff1660e01b8152600401611207929190615539565b60206040518083038186803b15801561121f57600080fd5b505af4158015611233573d6000803e3d6000fd5b505050506040513d601f19601f82011682018060405250810190611257919061409a565b61322990919063ffffffff16565b9050601173__$ff63054a5fca904aa61f9270973a47c131$__63bc2b405c909133846040518463ffffffff1660e01b81526004016112a593929190615599565b60006040518083038186803b1580156112bd57600080fd5b505af41580156112d1573d6000803e3d6000fd5b5050505060003373ffffffffffffffffffffffffffffffffffffffff16836040516112fb90615066565b60006040518083038185875af1925050503d8060008114611338576040519150601f19603f3d011682016040523d82523d6000602084013e61133d565b606091505b5050905080611381576040517f08c379a0000000000000000000000000000000000000000000000000000000008152600401611378906154de565b60405180910390fd5b505050505050565b600080600860003373ffffffffffffffffffffffffffffffffffffffff1673ffffffffffffffffffffffffffffffffffffffff168152602001908152602001600020541161140c576040517f08c379a00000000000000000000000000000000000000000000000000000000081526004016114039061545e565b60405180910390fd5b601554905090565b6000600860003373ffffffffffffffffffffffffffffffffffffffff1673ffffffffffffffffffffffffffffffffffffffff1681526020019081526020016000205411611496576040517f08c379a000000000000000000000000000000000000000000000000000000000815260040161148d906151fe565b60405180910390fd5b6402540be4003410156114de576040517f08c379a00000000000000000000000000000000000000000000000000000000081526004016114d59061525e565b60405180910390fd5b6000600860003373ffffffffffffffffffffffffffffffffffffffff1673ffffffffffffffffffffffffffffffffffffffff1681526020019081526020016000205490506000600760008381526020019081526020016000209050600081600101549050600d81101561163f57600673__$02df0db2a7fa1364a2877de9b5cd31a049$__633e239e1a61158e61157f610e108661321390919063ffffffff16565b4261322990919063ffffffff16565b6040518263ffffffff1660e01b81526004016115aa919061561b565b60206040518083038186803b1580156115c257600080fd5b505af41580156115d6573d6000803e3d6000fd5b505050506040513d601f19601f820116820180604052508101906115fa91906140c3565b60ff16101561163e576040517f08c379a00000000000000000000000000000000000000000000000000000000081526004016116359061541e565b60405180910390fd5b5b600d811061175457600061165d600c8361323f90919063ffffffff16565b9050600673__$02df0db2a7fa1364a2877de9b5cd31a049$__633e239e1a6116a2611693610e108661321390919063ffffffff16565b4261323f90919063ffffffff16565b6040518263ffffffff1660e01b81526004016116be919061561b565b60206040518083038186803b1580156116d657600080fd5b505af41580156116ea573d6000803e3d6000fd5b505050506040513d601f19601f8201168201806040525081019061170e91906140c3565b60ff161015611752576040517f08c379a00000000000000000000000000000000000000000000000000000000081526004016117499061541e565b60405180910390fd5b505b73__$02df0db2a7fa1364a2877de9b5cd31a049$__6365c72840426040518263ffffffff1660e01b815260040161178b919061561b565b60206040518083038186803b1580156117a357600080fd5b505af41580156117b7573d6000803e3d6000fd5b505050506040513d601f19601f820116820180604052508101906117db91906140c3565b60ff1673__$02df0db2a7fa1364a2877de9b5cd31a049$__6365c72840600d73__$ff63054a5fca904aa61f9270973a47c131$__63732a2ccf9091336040518363ffffffff1660e01b8152600401611834929190615539565b60206040518083038186803b15801561184c57600080fd5b505af4158015611860573d6000803e3d6000fd5b505050506040513d601f19601f82011682018060405250810190611884919061409a565b6040518263ffffffff1660e01b81526004016118a0919061561b565b60206040518083038186803b1580156118b857600080fd5b505af41580156118cc573d6000803e3d6000fd5b505050506040513d601f19601f820116820180604052508101906118f091906140c3565b60ff161415611934576040517f08c379a000000000000000000000000000000000000000000000000000000000815260040161192b906153be565b60405180910390fd5b6000600860003373ffffffffffffffffffffffffffffffffffffffff1673ffffffffffffffffffffffffffffffffffffffff16815260200190815260200160002054905060006007600083815260200190815260200160002090506119a43460165461322990919063ffffffff16565b50600973__$ff63054a5fca904aa61f9270973a47c131$__63bc2b405c909133346040518463ffffffff1660e01b81526004016119e393929190615599565b60006040518083038186803b1580156119fb57600080fd5b505af4158015611a0f573d6000803e3d6000fd5b50505050600d73__$ff63054a5fca904aa61f9270973a47c131$__63bc2b405c909133426040518463ffffffff1660e01b8152600401611a5193929190615599565b60006040518083038186803b158015611a6957600080fd5b505af4158015611a7d573d6000803e3d6000fd5b50505050611a996001826003015461322990919063ffffffff16565b8160030181905550611ab834826004015461322990919063ffffffff16565b81600401819055505050505050565b606060018054611ad69061592b565b80601f0160208091040260200160405190810160405280929190818152602001828054611b029061592b565b8015611b4f5780601f10611b2457610100808354040283529160200191611b4f565b820191906000526020600020905b815481529060010190602001808311611b3257829003601f168201915b5050505050905090565b6007602052806000526040600020600091509050806000018054611b7c9061592b565b80601f0160208091040260200160405190810160405280929190818152602001828054611ba89061592b565b8015611bf55780601f10611bca57610100808354040283529160200191611bf5565b820191906000526020600020905b815481529060010190602001808311611bd857829003601f168201915b5050505050908060010154908060020154908060030154908060040154908060050154908060060154905087565b611c35611c2e612e18565b8383613255565b5050565b6000600860003373ffffffffffffffffffffffffffffffffffffffff1673ffffffffffffffffffffffffffffffffffffffff1681526020019081526020016000205411611cbb576040517f08c379a0000000000000000000000000000000000000000000000000000000008152600401611cb29061539e565b60405180910390fd5b601e601173__$ff63054a5fca904aa61f9270973a47c131$__63732a2ccf9091336040518363ffffffff1660e01b8152600401611cf9929190615539565b60206040518083038186803b158015611d1157600080fd5b505af4158015611d25573d6000803e3d6000fd5b505050506040513d601f19601f82011682018060405250810190611d49919061409a565b1015611d8a576040517f08c379a0000000000000000000000000000000000000000000000000000000008152600401611d81906151de565b60405180910390fd5b6000805b600d73__$ff63054a5fca904aa61f9270973a47c131$__63deb3d89690916040518263ffffffff1660e01b8152600401611dc8919061551e565b60206040518083038186803b158015611de057600080fd5b505af4158015611df4573d6000803e3d6000fd5b505050506040513d601f19601f82011682018060405250810190611e18919061409a565b811015612093576000600d73__$ff63054a5fca904aa61f9270973a47c131$__63d1aa9e7e9091846040518363ffffffff1660e01b8152600401611e5d9291906155d0565b60206040518083038186803b158015611e7557600080fd5b505af4158015611e89573d6000803e3d6000fd5b505050506040513d601f19601f82011682018060405250810190611ead9190613e24565b9050611f62611ec86018610e1061321390919063ffffffff16565b600d73__$ff63054a5fca904aa61f9270973a47c131$__63732a2ccf9091856040518363ffffffff1660e01b8152600401611f04929190615539565b60206040518083038186803b158015611f1c57600080fd5b505af4158015611f30573d6000803e3d6000fd5b505050506040513d601f19601f82011682018060405250810190611f54919061409a565b61322990919063ffffffff16565b42111561207f57612009600973__$ff63054a5fca904aa61f9270973a47c131$__63732a2ccf9091846040518363ffffffff1660e01b8152600401611fa8929190615539565b60206040518083038186803b158015611fc057600080fd5b505af4158015611fd4573d6000803e3d6000fd5b505050506040513d601f19601f82011682018060405250810190611ff8919061409a565b60155461322990919063ffffffff16565b601581905550600973__$ff63054a5fca904aa61f9270973a47c131$__63bc2b405c90918360006040518463ffffffff1660e01b815260040161204e93929190615562565b60006040518083038186803b15801561206657600080fd5b505af415801561207a573d6000803e3d6000fd5b505050505b50808061208b9061595d565b915050611d8e565b506000601554116120d9576040517f08c379a00000000000000000000000000000000000000000000000000000000081526004016120d0906154fe565b60405180910390fd5b6000600860003373ffffffffffffffffffffffffffffffffffffffff1673ffffffffffffffffffffffffffffffffffffffff168152602001908152602001600020549050600060076000838152602001908152602001600020905060005b600973__$ff63054a5fca904aa61f9270973a47c131$__63deb3d89690916040518263ffffffff1660e01b8152600401612171919061551e565b60206040518083038186803b15801561218957600080fd5b505af415801561219d573d6000803e3d6000fd5b505050506040513d601f19601f820116820180604052508101906121c1919061409a565b81101561230e576000601173__$ff63054a5fca904aa61f9270973a47c131$__63d1aa9e7e9091846040518363ffffffff1660e01b81526004016122069291906155d0565b60206040518083038186803b15801561221e57600080fd5b505af4158015612232573d6000803e3d6000fd5b505050506040513d601f19601f820116820180604052508101906122569190613e24565b9050601e601173__$ff63054a5fca904aa61f9270973a47c131$__63732a2ccf9091846040518363ffffffff1660e01b8152600401612296929190615539565b60206040518083038186803b1580156122ae57600080fd5b505af41580156122c2573d6000803e3d6000fd5b505050506040513d601f19601f820116820180604052508101906122e6919061409a565b106122fa5784806122f69061595d565b9550505b5080806123069061595d565b915050612137565b506000612326846015546133c290919063ffffffff16565b905061233d8160155461323f90919063ffffffff16565b60158190555060006123e46001601173__$ff63054a5fca904aa61f9270973a47c131$__63732a2ccf9091336040518363ffffffff1660e01b8152600401612386929190615539565b60206040518083038186803b15801561239e57600080fd5b505af41580156123b2573d6000803e3d6000fd5b505050506040513d601f19601f820116820180604052508101906123d6919061409a565b61323f90919063ffffffff16565b9050601173__$ff63054a5fca904aa61f9270973a47c131$__63bc2b405c909133846040518463ffffffff1660e01b815260040161242493929190615599565b60006040518083038186803b15801561243c57600080fd5b505af4158015612450573d6000803e3d6000fd5b5050505061246c601e846006015461323f90919063ffffffff16565b836006018190555061248b82846005015461322990919063ffffffff16565b836005018190555060003373ffffffffffffffffffffffffffffffffffffffff16836040516124b990615066565b60006040518083038185875af1925050503d80600081146124f6576040519150601f19603f3d011682016040523d82523d6000602084013e6124fb565b606091505b505090508061253f576040517f08c379a0000000000000000000000000000000000000000000000000000000008152600401612536906154de565b60405180910390fd5b505050505050565b612558612552612e18565b83612ed9565b612597576040517f08c379a000000000000000000000000000000000000000000000000000000000815260040161258e9061549e565b60405180910390fd5b6125a3848484846133d8565b50505050565b6000600860003373ffffffffffffffffffffffffffffffffffffffff1673ffffffffffffffffffffffffffffffffffffffff168152602001908152602001600020541461262b576040517f08c379a0000000000000000000000000000000000000000000000000000000008152600401612622906152fe565b60405180910390fd5b60006126376006613434565b90506126433382613442565b6040518060e001604052808481526020018381526020016000815260200160008152602001600081526020016000815260200160008152506007600083815260200190815260200160002060008201518160000190805190602001906126aa929190613ba3565b506020820151816001015560408201518160020155606082015181600301556080820151816004015560a0820151816005015560c0820151816006015590505080600860003373ffffffffffffffffffffffffffffffffffffffff1673ffffffffffffffffffffffffffffffffffffffff168152602001908152602001600020819055506127386006612d2c565b7f0ff8d95af74a8c072247e3c2b5e73ab929e2eb87e62682f83f5707bc5bc4a75933826040516127699291906150e2565b60405180910390a1505050565b60606000600760008481526020019081526020016000206040518060e00160405290816000820180546127a89061592b565b80601f01602080910402602001604051908101604052809291908181526020018280546127d49061592b565b80156128215780601f106127f657610100808354040283529160200191612821565b820191906000526020600020905b81548152906001019060200180831161280457829003601f168201915b505050505081526020016001820154815260200160028201548152602001600382015481526020016004820154815260200160058201548152602001600682015481525050905060606000826020015114156128b0576040518060400160405280600381526020017f474d54000000000000000000000000000000000000000000000000000000000081525090505b600d82602001511080156128c8575060008260200151105b1561293f5760006128dc8360200151613460565b905060006040518060400160405280600481526020017f474d542b000000000000000000000000000000000000000000000000000000008152509050808260405160200161292b929190614f40565b604051602081830303815290604052925050505b600d826020015111156129d7576000612966600c846020015161323f90919063ffffffff16565b9050600061297382613460565b905060006040518060400160405280600481526020017f474d542d00000000000000000000000000000000000000000000000000000000815250905080826040516020016129c2929190614f40565b60405160208183030381529060405293505050505b60006129e68360400151613460565b905060006129f78460600151613460565b90506000612a088560800151613460565b90506000612a198660c00151613460565b90506000604051806080016040528060508152602001615b186050913990506000612a7c8860000151612a4b8c613460565b84898989898e604051602001612a68989796959493929190614f6f565b60405160208183030381529060405261360d565b9050600081604051602001612a919190615044565b6040516020818303038152906040529050809950505050505050505050919050565b612abb613c29565b6000600860003373ffffffffffffffffffffffffffffffffffffffff1673ffffffffffffffffffffffffffffffffffffffff1681526020019081526020016000205490506000811115612bfc57600760008281526020019081526020016000206040518060e0016040529081600082018054612b369061592b565b80601f0160208091040260200160405190810160405280929190818152602001828054612b629061592b565b8015612baf5780601f10612b8457610100808354040283529160200191612baf565b820191906000526020600020905b815481529060010190602001808311612b9257829003601f168201915b505050505081526020016001820154815260200160028201548152602001600382015481526020016004820154815260200160058201548152602001600682015481525050915050612c0a565b612c04613c29565b80925050505b90565b600080600860003373ffffffffffffffffffffffffffffffffffffffff1673ffffffffffffffffffffffffffffffffffffffff1681526020019081526020016000205411612c90576040517f08c379a0000000000000000000000000000000000000000000000000000000008152600401612c879061545e565b60405180910390fd5b601654905090565b6000600560008473ffffffffffffffffffffffffffffffffffffffff1673ffffffffffffffffffffffffffffffffffffffff16815260200190815260200160002060008373ffffffffffffffffffffffffffffffffffffffff1673ffffffffffffffffffffffffffffffffffffffff16815260200190815260200160002060009054906101000a900460ff16905092915050565b6001816000016000828254019250508190555050565b60007f01ffc9a7000000000000000000000000000000000000000000000000000000007bffffffffffffffffffffffffffffffffffffffffffffffffffffffff1916827bffffffffffffffffffffffffffffffffffffffffffffffffffffffff1916149050919050565b60008073ffffffffffffffffffffffffffffffffffffffff166002600084815260200190815260200160002060009054906101000a900473ffffffffffffffffffffffffffffffffffffffff1673ffffffffffffffffffffffffffffffffffffffff1614159050919050565b600033905090565b816004600083815260200190815260200160002060006101000a81548173ffffffffffffffffffffffffffffffffffffffff021916908373ffffffffffffffffffffffffffffffffffffffff160217905550808273ffffffffffffffffffffffffffffffffffffffff16612e93836108f4565b73ffffffffffffffffffffffffffffffffffffffff167f8c5be1e5ebec7d5bd14f71427d1e84f3dd0314c0f7b2291e5b200ac8c7c3b92560405160405180910390a45050565b6000612ee482612dac565b612f23576040517f08c379a0000000000000000000000000000000000000000000000000000000008152600401612f1a906152be565b60405180910390fd5b6000612f2e836108f4565b90508073ffffffffffffffffffffffffffffffffffffffff168473ffffffffffffffffffffffffffffffffffffffff161480612f9d57508373ffffffffffffffffffffffffffffffffffffffff16612f85846106d7565b73ffffffffffffffffffffffffffffffffffffffff16145b80612fae5750612fad8185612c98565b5b91505092915050565b8273ffffffffffffffffffffffffffffffffffffffff16612fd7826108f4565b73ffffffffffffffffffffffffffffffffffffffff161461302d576040517f08c379a00000000000000000000000000000000000000000000000000000000081526004016130249061543e565b60405180910390fd5b600073ffffffffffffffffffffffffffffffffffffffff168273ffffffffffffffffffffffffffffffffffffffff16141561309d576040517f08c379a00000000000000000000000000000000000000000000000000000000081526004016130949061527e565b60405180910390fd5b6130a88383836137cb565b6130b3600082612e20565b6001600360008573ffffffffffffffffffffffffffffffffffffffff1673ffffffffffffffffffffffffffffffffffffffff16815260200190815260200160002060008282546131039190615822565b925050819055506001600360008473ffffffffffffffffffffffffffffffffffffffff1673ffffffffffffffffffffffffffffffffffffffff168152602001908152602001600020600082825461315a9190615741565b92505081905550816002600083815260200190815260200160002060006101000a81548173ffffffffffffffffffffffffffffffffffffffff021916908373ffffffffffffffffffffffffffffffffffffffff160217905550808273ffffffffffffffffffffffffffffffffffffffff168473ffffffffffffffffffffffffffffffffffffffff167fddf252ad1be2c89b69c2b068fc378daa952ba7f163c4a11628f55a4df523b3ef60405160405180910390a4505050565b6000818361322191906157c8565b905092915050565b600081836132379190615741565b905092915050565b6000818361324d9190615822565b905092915050565b8173ffffffffffffffffffffffffffffffffffffffff168373ffffffffffffffffffffffffffffffffffffffff1614156132c4576040517f08c379a00000000000000000000000000000000000000000000000000000000081526004016132bb9061529e565b60405180910390fd5b80600560008573ffffffffffffffffffffffffffffffffffffffff1673ffffffffffffffffffffffffffffffffffffffff16815260200190815260200160002060008473ffffffffffffffffffffffffffffffffffffffff1673ffffffffffffffffffffffffffffffffffffffff16815260200190815260200160002060006101000a81548160ff0219169083151502179055508173ffffffffffffffffffffffffffffffffffffffff168373ffffffffffffffffffffffffffffffffffffffff167f17307eab39ab6107e8899845ad3d59bd9653f200f220920489ca2b5937696c31836040516133b5919061510b565b60405180910390a3505050565b600081836133d09190615797565b905092915050565b6133e3848484612fb7565b6133ef848484846137d0565b61342e576040517f08c379a00000000000000000000000000000000000000000000000000000000081526004016134259061521e565b60405180910390fd5b50505050565b600081600001549050919050565b61345c828260405180602001604052806000815250613967565b5050565b606060008214156134a8576040518060400160405280600181526020017f30000000000000000000000000000000000000000000000000000000000000008152509050613608565b600082905060005b600082146134da5780806134c39061595d565b915050600a826134d39190615797565b91506134b0565b60008167ffffffffffffffff81111561351c577f4e487b7100000000000000000000000000000000000000000000000000000000600052604160045260246000fd5b6040519080825280601f01601f19166020018201604052801561354e5781602001600182028036833780820191505090505b5090505b60008514613601576001826135679190615822565b9150600a8561357691906159a6565b60306135829190615741565b60f81b8183815181106135be577f4e487b7100000000000000000000000000000000000000000000000000000000600052603260045260246000fd5b60200101907effffffffffffffffffffffffffffffffffffffffffffffffffffffffffffff1916908160001a905350600a856135fa9190615797565b9450613552565b8093505050505b919050565b6060600082519050600081141561363657604051806020016040528060008152509150506137c6565b600060036002836136479190615741565b6136519190615797565b600461365d91906157c8565b9050600060208261366e9190615741565b67ffffffffffffffff8111156136ad577f4e487b7100000000000000000000000000000000000000000000000000000000600052604160045260246000fd5b6040519080825280601f01601f1916602001820160405280156136df5781602001600182028036833780820191505090505b5090506000604051806060016040528060408152602001615b68604091399050600181016020830160005b868110156137835760038101905062ffffff818a015116603f8160121c168401518060081b905060ff603f83600c1c1686015116810190508060081b905060ff603f8360061c1686015116810190508060081b905060ff603f831686015116810190508060e01b9050808452600484019350505061370a565b50600386066001811461379d57600281146137ad576137b8565b613d3d60f01b60028303526137b8565b603d60f81b60018303525b508484525050819450505050505b919050565b505050565b60006137f18473ffffffffffffffffffffffffffffffffffffffff166139c2565b1561395a578373ffffffffffffffffffffffffffffffffffffffff1663150b7a0261381a612e18565b8786866040518563ffffffff1660e01b815260040161383c9493929190615096565b602060405180830381600087803b15801561385657600080fd5b505af192505050801561388757506040513d601f19601f820116820180604052508101906138849190613ff4565b60015b61390a573d80600081146138b7576040519150601f19603f3d011682016040523d82523d6000602084013e6138bc565b606091505b50600081511415613902576040517f08c379a00000000000000000000000000000000000000000000000000000000081526004016138f99061521e565b60405180910390fd5b805181602001fd5b63150b7a0260e01b7bffffffffffffffffffffffffffffffffffffffffffffffffffffffff1916817bffffffffffffffffffffffffffffffffffffffffffffffffffffffff19161491505061395f565b600190505b949350505050565b61397183836139d5565b61397e60008484846137d0565b6139bd576040517f08c379a00000000000000000000000000000000000000000000000000000000081526004016139b49061521e565b60405180910390fd5b505050565b600080823b905060008111915050919050565b600073ffffffffffffffffffffffffffffffffffffffff168273ffffffffffffffffffffffffffffffffffffffff161415613a45576040517f08c379a0000000000000000000000000000000000000000000000000000000008152600401613a3c906153de565b60405180910390fd5b613a4e81612dac565b15613a8e576040517f08c379a0000000000000000000000000000000000000000000000000000000008152600401613a859061523e565b60405180910390fd5b613a9a600083836137cb565b6001600360008473ffffffffffffffffffffffffffffffffffffffff1673ffffffffffffffffffffffffffffffffffffffff1681526020019081526020016000206000828254613aea9190615741565b92505081905550816002600083815260200190815260200160002060006101000a81548173ffffffffffffffffffffffffffffffffffffffff021916908373ffffffffffffffffffffffffffffffffffffffff160217905550808273ffffffffffffffffffffffffffffffffffffffff16600073ffffffffffffffffffffffffffffffffffffffff167fddf252ad1be2c89b69c2b068fc378daa952ba7f163c4a11628f55a4df523b3ef60405160405180910390a45050565b828054613baf9061592b565b90600052602060002090601f016020900481019282613bd15760008555613c18565b82601f10613bea57805160ff1916838001178555613c18565b82800160010185558215613c18579182015b82811115613c17578251825591602001919060010190613bfc565b5b509050613c259190613c66565b5090565b6040518060e00160405280606081526020016000815260200160008152602001600081526020016000815260200160008152602001600081525090565b5b80821115613c7f576000816000905550600101613c67565b5090565b6000613c96613c9184615682565b615651565b905082815260208101848484011115613cae57600080fd5b613cb98482856158e9565b509392505050565b6000613cd4613ccf846156b2565b615651565b905082815260208101848484011115613cec57600080fd5b613cf78482856158e9565b509392505050565b600081359050613d0e81615aa4565b92915050565b600081519050613d2381615aa4565b92915050565b600081359050613d3881615abb565b92915050565b600081359050613d4d81615ad2565b92915050565b600081519050613d6281615ad2565b92915050565b600082601f830112613d7957600080fd5b8135613d89848260208601613c83565b91505092915050565b600082601f830112613da357600080fd5b8135613db3848260208601613cc1565b91505092915050565b600081359050613dcb81615ae9565b92915050565b600081519050613de081615ae9565b92915050565b600081519050613df581615b00565b92915050565b600060208284031215613e0d57600080fd5b6000613e1b84828501613cff565b91505092915050565b600060208284031215613e3657600080fd5b6000613e4484828501613d14565b91505092915050565b60008060408385031215613e6057600080fd5b6000613e6e85828601613cff565b9250506020613e7f85828601613cff565b9150509250929050565b600080600060608486031215613e9e57600080fd5b6000613eac86828701613cff565b9350506020613ebd86828701613cff565b9250506040613ece86828701613dbc565b9150509250925092565b60008060008060808587031215613eee57600080fd5b6000613efc87828801613cff565b9450506020613f0d87828801613cff565b9350506040613f1e87828801613dbc565b925050606085013567ffffffffffffffff811115613f3b57600080fd5b613f4787828801613d68565b91505092959194509250565b60008060408385031215613f6657600080fd5b6000613f7485828601613cff565b9250506020613f8585828601613d29565b9150509250929050565b60008060408385031215613fa257600080fd5b6000613fb085828601613cff565b9250506020613fc185828601613dbc565b9150509250929050565b600060208284031215613fdd57600080fd5b6000613feb84828501613d3e565b91505092915050565b60006020828403121561400657600080fd5b600061401484828501613d53565b91505092915050565b6000806040838503121561403057600080fd5b600083013567ffffffffffffffff81111561404a57600080fd5b61405685828601613d92565b925050602061406785828601613dbc565b9150509250929050565b60006020828403121561408357600080fd5b600061409184828501613dbc565b91505092915050565b6000602082840312156140ac57600080fd5b60006140ba84828501613dd1565b91505092915050565b6000602082840312156140d557600080fd5b60006140e384828501613de6565b91505092915050565b6140f581615856565b82525050565b61410481615856565b82525050565b61411381615868565b82525050565b6000614124826156e2565b61412e81856156f8565b935061413e8185602086016158f8565b61414781615a93565b840191505092915050565b61415b816158d7565b82525050565b600061416c826156ed565b6141768185615714565b93506141868185602086016158f8565b61418f81615a93565b840191505092915050565b60006141a5826156ed565b6141af8185615725565b93506141bf8185602086016158f8565b6141c881615a93565b840191505092915050565b60006141de826156ed565b6141e88185615736565b93506141f88185602086016158f8565b80840191505092915050565b6000614211602883615736565b91507f7d2c207b202274726169745f74797065223a2022417474656d707473222c202260008301527f76616c7565223a200000000000000000000000000000000000000000000000006020830152602882019050919050565b6000614277603683615736565b91507f222c2261747472696275746573223a205b207b202274726169745f747970652260008301527f3a2022576f6b65207570222c202276616c7565223a20000000000000000000006020830152603682019050919050565b60006142dd601b83615725565b91507f596f7520686176656e2774207374616b656420616e797468696e6700000000006000830152602082019050919050565b600061431d602183615725565b91507f4e6f7420656e6f75676820746f6b656e7320746f20636c61696d20726577617260008301527f64000000000000000000000000000000000000000000000000000000000000006020830152604082019050919050565b6000614383601c83615725565b91507f596f75206e656564206d656d6265727368697020746f207374616b65000000006000830152602082019050919050565b60006143c3603283615725565b91507f4552433732313a207472616e7366657220746f206e6f6e20455243373231526560008301527f63656976657220696d706c656d656e74657200000000000000000000000000006020830152604082019050919050565b6000614429602c83615736565b91507f7d2c207b202274726169745f74797065223a2022546f74616c205374616b656460008301527f222c202276616c7565223a2000000000000000000000000000000000000000006020830152602c82019050919050565b600061448f601783615736565b91507f46697665416d436c617070204d656d626572204e6f3a200000000000000000006000830152601782019050919050565b60006144cf601c83615725565b91507f4552433732313a20746f6b656e20616c7265616479206d696e746564000000006000830152602082019050919050565b600061450f601183615725565b91507f506c65617365207374616b65206d6f72650000000000000000000000000000006000830152602082019050919050565b600061454f602483615725565b91507f4552433732313a207472616e7366657220746f20746865207a65726f2061646460008301527f72657373000000000000000000000000000000000000000000000000000000006020830152604082019050919050565b60006145b5601983615725565b91507f4552433732313a20617070726f766520746f2063616c6c6572000000000000006000830152602082019050919050565b60006145f5602983615736565b91507f7d2c207b202274726169745f74797065223a202254696d65205a6f6e65222c2060008301527f2276616c7565223a2000000000000000000000000000000000000000000000006020830152602982019050919050565b600061465b602c83615725565b91507f4552433732313a206f70657261746f7220717565727920666f72206e6f6e657860008301527f697374656e7420746f6b656e00000000000000000000000000000000000000006020830152604082019050919050565b60006146c1600883615725565b91507f546f6f206c6174650000000000000000000000000000000000000000000000006000830152602082019050919050565b6000614701600183615736565b91507f20000000000000000000000000000000000000000000000000000000000000006000830152600182019050919050565b6000614741602783615725565b91507f4f6e6c79206f6e65206d656d626572736869702070657220616464726573732060008301527f616c6c6f776564000000000000000000000000000000000000000000000000006020830152604082019050919050565b60006147a7603883615725565b91507f4552433732313a20617070726f76652063616c6c6572206973206e6f74206f7760008301527f6e6572206e6f7220617070726f76656420666f7220616c6c00000000000000006020830152604082019050919050565b600061480d602a83615725565b91507f4552433732313a2062616c616e636520717565727920666f7220746865207a6560008301527f726f2061646472657373000000000000000000000000000000000000000000006020830152604082019050919050565b6000614873602983615725565b91507f4552433732313a206f776e657220717565727920666f72206e6f6e657869737460008301527f656e7420746f6b656e00000000000000000000000000000000000000000000006020830152604082019050919050565b60006148d9601183615725565b91507f546f6f206561726c79206f72206c6174650000000000000000000000000000006000830152602082019050919050565b6000614919601c83615725565b91507f596f75206e656564206d656d6265727368697020746f20636c61696d000000006000830152602082019050919050565b6000614959601f83615725565b91507f596f752063616e207374616b65206f6e6c79206f6e63652070657220646179006000830152602082019050919050565b6000614999600483615736565b91507f7d205d7d000000000000000000000000000000000000000000000000000000006000830152600482019050919050565b60006149d9602083615725565b91507f4552433732313a206d696e7420746f20746865207a65726f20616464726573736000830152602082019050919050565b6000614a19602c83615725565b91507f4552433732313a20617070726f76656420717565727920666f72206e6f6e657860008301527f697374656e7420746f6b656e00000000000000000000000000000000000000006020830152604082019050919050565b6000614a7f600983615725565b91507f546f6f206561726c7900000000000000000000000000000000000000000000006000830152602082019050919050565b6000614abf602983615725565b91507f4552433732313a207472616e73666572206f6620746f6b656e2074686174206960008301527f73206e6f74206f776e00000000000000000000000000000000000000000000006020830152604082019050919050565b6000614b25601f83615725565b91507f596f75206e656564206d656d6265727368697020746f207365652074686973006000830152602082019050919050565b6000614b65600a83615736565b91507f7b226e616d65223a2022000000000000000000000000000000000000000000006000830152600a82019050919050565b6000614ba5602183615725565b91507f4552433732313a20617070726f76616c20746f2063757272656e74206f776e6560008301527f72000000000000000000000000000000000000000000000000000000000000006020830152604082019050919050565b6000614c0b601d83615736565b91507f646174613a6170706c69636174696f6e2f6a736f6e3b6261736536342c0000006000830152601d82019050919050565b6000614c4b600083615709565b9150600082019050919050565b6000614c65603183615725565b91507f4552433732313a207472616e736665722063616c6c6572206973206e6f74206f60008301527f776e6572206e6f7220617070726f7665640000000000000000000000000000006020830152604082019050919050565b6000614ccb601f83615725565b91507f596f75206e656564206d656d6265727368697020746f207769746864726177006000830152602082019050919050565b6000614d0b601483615725565b91507f4661696c656420746f2073656e64204d617469630000000000000000000000006000830152602082019050919050565b6000614d4b602e83615736565b91507f7d2c207b202274726169745f74797065223a20224669766520414d20546f6b6560008301527f6e73222c202276616c7565223a200000000000000000000000000000000000006020830152602e82019050919050565b6000614db1601583615725565b91507f5265776172647320506f6f6c20656d707479203a2800000000000000000000006000830152602082019050919050565b6000614df1604383615736565b91507f222c20226465736372697074696f6e223a20224669766520414d20436c61707060008301527f204d656d62657273686970204e465420546f6b656e2e222c2022696d6167652260208301527f3a202200000000000000000000000000000000000000000000000000000000006040830152604382019050919050565b8082525050565b600060e0830160008301518482036000860152614e948282614161565b9150506020830151614ea96020860182614f13565b506040830151614ebc6040860182614f13565b506060830151614ecf6060860182614f13565b506080830151614ee26080860182614f13565b5060a0830151614ef560a0860182614f13565b5060c0830151614f0860c0860182614f13565b508091505092915050565b614f1c816158c0565b82525050565b614f2b816158c0565b82525050565b614f3a816158c0565b82525050565b6000614f4c82856141d3565b9150614f57826146f4565b9150614f6382846141d3565b91508190509392505050565b6000614f7a82614b58565b9150614f86828b6141d3565b9150614f9182614482565b9150614f9d828a6141d3565b9150614fa882614de4565b9150614fb482896141d3565b9150614fbf8261426a565b9150614fcb82886141d3565b9150614fd682614204565b9150614fe282876141d3565b9150614fed8261441c565b9150614ff982866141d3565b915061500482614d3e565b915061501082856141d3565b915061501b826145e8565b915061502782846141d3565b91506150328261498c565b91508190509998505050505050505050565b600061504f82614bfe565b915061505b82846141d3565b915081905092915050565b600061507182614c3e565b9150819050919050565b600060208201905061509060008301846140ec565b92915050565b60006080820190506150ab60008301876140ec565b6150b860208301866140ec565b6150c56040830185614f22565b81810360608301526150d78184614119565b905095945050505050565b60006040820190506150f760008301856140ec565b6151046020830184614f22565b9392505050565b6000602082019050615120600083018461410a565b92915050565b60006020820190508181036000830152615140818461419a565b905092915050565b600060e0820190508181036000830152615162818a61419a565b90506151716020830189614f22565b61517e6040830188614f22565b61518b6060830187614f22565b6151986080830186614f22565b6151a560a0830185614f22565b6151b260c0830184614f22565b98975050505050505050565b600060208201905081810360008301526151d7816142d0565b9050919050565b600060208201905081810360008301526151f781614310565b9050919050565b6000602082019050818103600083015261521781614376565b9050919050565b60006020820190508181036000830152615237816143b6565b9050919050565b60006020820190508181036000830152615257816144c2565b9050919050565b6000602082019050818103600083015261527781614502565b9050919050565b6000602082019050818103600083015261529781614542565b9050919050565b600060208201905081810360008301526152b7816145a8565b9050919050565b600060208201905081810360008301526152d78161464e565b9050919050565b600060208201905081810360008301526152f7816146b4565b9050919050565b6000602082019050818103600083015261531781614734565b9050919050565b600060208201905081810360008301526153378161479a565b9050919050565b6000602082019050818103600083015261535781614800565b9050919050565b6000602082019050818103600083015261537781614866565b9050919050565b60006020820190508181036000830152615397816148cc565b9050919050565b600060208201905081810360008301526153b78161490c565b9050919050565b600060208201905081810360008301526153d78161494c565b9050919050565b600060208201905081810360008301526153f7816149cc565b9050919050565b6000602082019050818103600083015261541781614a0c565b9050919050565b6000602082019050818103600083015261543781614a72565b9050919050565b6000602082019050818103600083015261545781614ab2565b9050919050565b6000602082019050818103600083015261547781614b18565b9050919050565b6000602082019050818103600083015261549781614b98565b9050919050565b600060208201905081810360008301526154b781614c58565b9050919050565b600060208201905081810360008301526154d781614cbe565b9050919050565b600060208201905081810360008301526154f781614cfe565b9050919050565b6000602082019050818103600083015261551781614da4565b9050919050565b60006020820190506155336000830184614e70565b92915050565b600060408201905061554e6000830185614e70565b61555b60208301846140fb565b9392505050565b60006060820190506155776000830186614e70565b61558460208301856140fb565b6155916040830184614152565b949350505050565b60006060820190506155ae6000830186614e70565b6155bb60208301856140fb565b6155c86040830184614f31565b949350505050565b60006040820190506155e56000830185614e70565b6155f26020830184614f31565b9392505050565b600060208201905081810360008301526156138184614e77565b905092915050565b60006020820190506156306000830184614f31565b92915050565b600060208201905061564b6000830184614f22565b92915050565b6000604051905081810181811067ffffffffffffffff8211171561567857615677615a64565b5b8060405250919050565b600067ffffffffffffffff82111561569d5761569c615a64565b5b601f19601f8301169050602081019050919050565b600067ffffffffffffffff8211156156cd576156cc615a64565b5b601f19601f8301169050602081019050919050565b600081519050919050565b600081519050919050565b600082825260208201905092915050565b600081905092915050565b600082825260208201905092915050565b600082825260208201905092915050565b600081905092915050565b600061574c826158c0565b9150615757836158c0565b9250827fffffffffffffffffffffffffffffffffffffffffffffffffffffffffffffffff0382111561578c5761578b6159d7565b5b828201905092915050565b60006157a2826158c0565b91506157ad836158c0565b9250826157bd576157bc615a06565b5b828204905092915050565b60006157d3826158c0565b91506157de836158c0565b9250817fffffffffffffffffffffffffffffffffffffffffffffffffffffffffffffffff0483118215151615615817576158166159d7565b5b828202905092915050565b600061582d826158c0565b9150615838836158c0565b92508282101561584b5761584a6159d7565b5b828203905092915050565b6000615861826158a0565b9050919050565b60008115159050919050565b60007fffffffff0000000000000000000000000000000000000000000000000000000082169050919050565b600073ffffffffffffffffffffffffffffffffffffffff82169050919050565b6000819050919050565b600060ff82169050919050565b60006158e2826158c0565b9050919050565b82818337600083830152505050565b60005b838110156159165780820151818401526020810190506158fb565b83811115615925576000848401525b50505050565b6000600282049050600182168061594357607f821691505b6020821081141561595757615956615a35565b5b50919050565b6000615968826158c0565b91507fffffffffffffffffffffffffffffffffffffffffffffffffffffffffffffffff82141561599b5761599a6159d7565b5b600182019050919050565b60006159b1826158c0565b91506159bc836158c0565b9250826159cc576159cb615a06565b5b828206905092915050565b7f4e487b7100000000000000000000000000000000000000000000000000000000600052601160045260246000fd5b7f4e487b7100000000000000000000000000000000000000000000000000000000600052601260045260246000fd5b7f4e487b7100000000000000000000000000000000000000000000000000000000600052602260045260246000fd5b7f4e487b7100000000000000000000000000000000000000000000000000000000600052604160045260246000fd5b6000601f19601f8301169050919050565b615aad81615856565b8114615ab857600080fd5b50565b615ac481615868565b8114615acf57600080fd5b50565b615adb81615874565b8114615ae657600080fd5b50565b615af2816158c0565b8114615afd57600080fd5b50565b615b09816158ca565b8114615b1457600080fd5b5056fe68747470733a2f2f676174657761792e70696e6174612e636c6f75642f697066732f516d5a797861354a53617478554e6459397844667a3564644a566737624658614b787852553831345833504d61324142434445464748494a4b4c4d4e4f505152535455565758595a6162636465666768696a6b6c6d6e6f707172737475767778797a303132333435363738392b2fa264697066735822122078bb51f8d255e89f5c4e8dc9f2af3eeafe52b111fab3d61ed1a63307eb2e097164736f6c63430008000033",
  "linkReferences": {
    "contracts/libraries/CheckTime.sol": {
      "CheckTime": [
        {
          "length": 20,
          "start": 4222
        },
        {
          "length": 20,
          "start": 4497
        },
        {
          "length": 20,
          "start": 5963
        },
        {
          "length": 20,
          "start": 6239
        },
        {
          "length": 20,
          "start": 6482
        },
        {
          "length": 20,
          "start": 6620
        }
      ]
    },
    "contracts/libraries/IterableMapping.sol": {
      "IterableMapping": [
        {
          "length": 20,
          "start": 3217
        },
        {
          "length": 20,
          "start": 3378
        },
        {
          "length": 20,
          "start": 3558
        },
        {
          "length": 20,
          "start": 3779
        },
        {
          "length": 20,
          "start": 4743
        },
        {
          "length": 20,
          "start": 4885
        },
        {
          "length": 20,
          "start": 5067
        },
        {
          "length": 20,
          "start": 5223
        },
        {
          "length": 20,
          "start": 6648
        },
        {
          "length": 20,
          "start": 7077
        },
        {
          "length": 20,
          "start": 7187
        },
        {
          "length": 20,
          "start": 7869
        },
        {
          "length": 20,
          "start": 8078
        },
        {
          "length": 20,
          "start": 8225
        },
        {
          "length": 20,
          "start": 8392
        },
        {
          "length": 20,
          "start": 8556
        },
        {
          "length": 20,
          "start": 8719
        },
        {
          "length": 20,
          "start": 9015
        },
        {
          "length": 20,
          "start": 9162
        },
        {
          "length": 20,
          "start": 9306
        },
        {
          "length": 20,
          "start": 9546
        },
        {
          "length": 20,
          "start": 9702
        }
      ]
    }
  },
  "deployedLinkReferences": {
    "contracts/libraries/CheckTime.sol": {
      "CheckTime": [
        {
          "length": 20,
          "start": 3714
        },
        {
          "length": 20,
          "start": 3989
        },
        {
          "length": 20,
          "start": 5455
        },
        {
          "length": 20,
          "start": 5731
        },
        {
          "length": 20,
          "start": 5974
        },
        {
          "length": 20,
          "start": 6112
        }
      ]
    },
    "contracts/libraries/IterableMapping.sol": {
      "IterableMapping": [
        {
          "length": 20,
          "start": 2709
        },
        {
          "length": 20,
          "start": 2870
        },
        {
          "length": 20,
          "start": 3050
        },
        {
          "length": 20,
          "start": 3271
        },
        {
          "length": 20,
          "start": 4235
        },
        {
          "length": 20,
          "start": 4377
        },
        {
          "length": 20,
          "start": 4559
        },
        {
          "length": 20,
          "start": 4715
        },
        {
          "length": 20,
          "start": 6140
        },
        {
          "length": 20,
          "start": 6569
        },
        {
          "length": 20,
          "start": 6679
        },
        {
          "length": 20,
          "start": 7361
        },
        {
          "length": 20,
          "start": 7570
        },
        {
          "length": 20,
          "start": 7717
        },
        {
          "length": 20,
          "start": 7884
        },
        {
          "length": 20,
          "start": 8048
        },
        {
          "length": 20,
          "start": 8211
        },
        {
          "length": 20,
          "start": 8507
        },
        {
          "length": 20,
          "start": 8654
        },
        {
          "length": 20,
          "start": 8798
        },
        {
          "length": 20,
          "start": 9038
        },
        {
          "length": 20,
          "start": 9194
        }
      ]
    }
  }
}