{
  "_format": "hh-sol-artifact-1",
  "contractName": "FiveAmClub",
  "sourceName": "contracts/FiveAmClub.sol",
  "abi": [
    {
      "inputs": [],
      "stateMutability": "payable",
      "type": "constructor"
    },
    {
      "anonymous": false,
      "inputs": [
        {
          "indexed": true,
          "internalType": "address",
          "name": "owner",
          "type": "address"
        },
        {
          "indexed": true,
          "internalType": "address",
          "name": "approved",
          "type": "address"
        },
        {
          "indexed": true,
          "internalType": "uint256",
          "name": "tokenId",
          "type": "uint256"
        }
      ],
      "name": "Approval",
      "type": "event"
    },
    {
      "anonymous": false,
      "inputs": [
        {
          "indexed": true,
          "internalType": "address",
          "name": "owner",
          "type": "address"
        },
        {
          "indexed": true,
          "internalType": "address",
          "name": "operator",
          "type": "address"
        },
        {
          "indexed": false,
          "internalType": "bool",
          "name": "approved",
          "type": "bool"
        }
      ],
      "name": "ApprovalForAll",
      "type": "event"
    },
    {
      "anonymous": false,
      "inputs": [
        {
          "indexed": false,
          "internalType": "address",
          "name": "sender",
          "type": "address"
        },
        {
          "indexed": false,
          "internalType": "uint256",
          "name": "tokenId",
          "type": "uint256"
        }
      ],
      "name": "MembershipNFTMinted",
      "type": "event"
    },
    {
      "anonymous": false,
      "inputs": [
        {
          "indexed": true,
          "internalType": "address",
          "name": "from",
          "type": "address"
        },
        {
          "indexed": true,
          "internalType": "address",
          "name": "to",
          "type": "address"
        },
        {
          "indexed": true,
          "internalType": "uint256",
          "name": "tokenId",
          "type": "uint256"
        }
      ],
      "name": "Transfer",
      "type": "event"
    },
    {
      "inputs": [
        {
          "internalType": "address",
          "name": "to",
          "type": "address"
        },
        {
          "internalType": "uint256",
          "name": "tokenId",
          "type": "uint256"
        }
      ],
      "name": "approve",
      "outputs": [],
      "stateMutability": "nonpayable",
      "type": "function"
    },
    {
      "inputs": [
        {
          "internalType": "address",
          "name": "owner",
          "type": "address"
        }
      ],
      "name": "balanceOf",
      "outputs": [
        {
          "internalType": "uint256",
          "name": "",
          "type": "uint256"
        }
      ],
      "stateMutability": "view",
      "type": "function"
    },
    {
      "inputs": [],
      "name": "checkIfUserHasNFT",
      "outputs": [
        {
          "components": [
            {
              "internalType": "string",
              "name": "name",
              "type": "string"
            },
            {
              "internalType": "uint8",
              "name": "timeZone",
              "type": "uint8"
            },
            {
              "internalType": "uint256",
              "name": "wokeUp",
              "type": "uint256"
            }
          ],
          "internalType": "struct FiveAmClub.MemberAttributes",
          "name": "",
          "type": "tuple"
        }
      ],
      "stateMutability": "view",
      "type": "function"
    },
    {
      "inputs": [],
      "name": "claimReward",
      "outputs": [],
      "stateMutability": "nonpayable",
      "type": "function"
    },
    {
      "inputs": [
        {
          "internalType": "uint256",
          "name": "tokenId",
          "type": "uint256"
        }
      ],
      "name": "getApproved",
      "outputs": [
        {
          "internalType": "address",
          "name": "",
          "type": "address"
        }
      ],
      "stateMutability": "view",
      "type": "function"
    },
    {
      "inputs": [
        {
          "internalType": "address",
          "name": "owner",
          "type": "address"
        },
        {
          "internalType": "address",
          "name": "operator",
          "type": "address"
        }
      ],
      "name": "isApprovedForAll",
      "outputs": [
        {
          "internalType": "bool",
          "name": "",
          "type": "bool"
        }
      ],
      "stateMutability": "view",
      "type": "function"
    },
    {
      "inputs": [
        {
          "internalType": "string",
          "name": "_name",
          "type": "string"
        },
        {
          "internalType": "uint8",
          "name": "_timeZone",
          "type": "uint8"
        }
      ],
      "name": "mintMembershipNFT",
      "outputs": [],
      "stateMutability": "nonpayable",
      "type": "function"
    },
    {
      "inputs": [],
      "name": "name",
      "outputs": [
        {
          "internalType": "string",
          "name": "",
          "type": "string"
        }
      ],
      "stateMutability": "view",
      "type": "function"
    },
    {
      "inputs": [
        {
          "internalType": "uint256",
          "name": "",
          "type": "uint256"
        }
      ],
      "name": "nftHolderAttributes",
      "outputs": [
        {
          "internalType": "string",
          "name": "name",
          "type": "string"
        },
        {
          "internalType": "uint8",
          "name": "timeZone",
          "type": "uint8"
        },
        {
          "internalType": "uint256",
          "name": "wokeUp",
          "type": "uint256"
        }
      ],
      "stateMutability": "view",
      "type": "function"
    },
    {
      "inputs": [
        {
          "internalType": "address",
          "name": "",
          "type": "address"
        }
      ],
      "name": "nftHolders",
      "outputs": [
        {
          "internalType": "uint256",
          "name": "",
          "type": "uint256"
        }
      ],
      "stateMutability": "view",
      "type": "function"
    },
    {
      "inputs": [
        {
          "internalType": "uint256",
          "name": "tokenId",
          "type": "uint256"
        }
      ],
      "name": "ownerOf",
      "outputs": [
        {
          "internalType": "address",
          "name": "",
          "type": "address"
        }
      ],
      "stateMutability": "view",
      "type": "function"
    },
    {
      "inputs": [],
      "name": "rewardsPool",
      "outputs": [
        {
          "internalType": "uint256",
          "name": "",
          "type": "uint256"
        }
      ],
      "stateMutability": "view",
      "type": "function"
    },
    {
      "inputs": [
        {
          "internalType": "address",
          "name": "from",
          "type": "address"
        },
        {
          "internalType": "address",
          "name": "to",
          "type": "address"
        },
        {
          "internalType": "uint256",
          "name": "tokenId",
          "type": "uint256"
        }
      ],
      "name": "safeTransferFrom",
      "outputs": [],
      "stateMutability": "nonpayable",
      "type": "function"
    },
    {
      "inputs": [
        {
          "internalType": "address",
          "name": "from",
          "type": "address"
        },
        {
          "internalType": "address",
          "name": "to",
          "type": "address"
        },
        {
          "internalType": "uint256",
          "name": "tokenId",
          "type": "uint256"
        },
        {
          "internalType": "bytes",
          "name": "_data",
          "type": "bytes"
        }
      ],
      "name": "safeTransferFrom",
      "outputs": [],
      "stateMutability": "nonpayable",
      "type": "function"
    },
    {
      "inputs": [
        {
          "internalType": "address",
          "name": "operator",
          "type": "address"
        },
        {
          "internalType": "bool",
          "name": "approved",
          "type": "bool"
        }
      ],
      "name": "setApprovalForAll",
      "outputs": [],
      "stateMutability": "nonpayable",
      "type": "function"
    },
    {
      "inputs": [],
      "name": "stakeCommitment",
      "outputs": [],
      "stateMutability": "payable",
      "type": "function"
    },
    {
      "inputs": [
        {
          "internalType": "bytes4",
          "name": "interfaceId",
          "type": "bytes4"
        }
      ],
      "name": "supportsInterface",
      "outputs": [
        {
          "internalType": "bool",
          "name": "",
          "type": "bool"
        }
      ],
      "stateMutability": "view",
      "type": "function"
    },
    {
      "inputs": [],
      "name": "symbol",
      "outputs": [
        {
          "internalType": "string",
          "name": "",
          "type": "string"
        }
      ],
      "stateMutability": "view",
      "type": "function"
    },
    {
      "inputs": [
        {
          "internalType": "uint256",
          "name": "_tokenId",
          "type": "uint256"
        }
      ],
      "name": "tokenURI",
      "outputs": [
        {
          "internalType": "string",
          "name": "",
          "type": "string"
        }
      ],
      "stateMutability": "view",
      "type": "function"
    },
    {
      "inputs": [
        {
          "internalType": "address",
          "name": "from",
          "type": "address"
        },
        {
          "internalType": "address",
          "name": "to",
          "type": "address"
        },
        {
          "internalType": "uint256",
          "name": "tokenId",
          "type": "uint256"
        }
      ],
      "name": "transferFrom",
      "outputs": [],
      "stateMutability": "nonpayable",
      "type": "function"
    },
    {
      "inputs": [],
      "name": "withdrawCommitment",
      "outputs": [],
      "stateMutability": "nonpayable",
      "type": "function"
    }
  ],
  "bytecode": "0x60806040526040518060400160405280601781526020017f35414d20436c7562204d656d62657273686970204e46540000000000000000008152506040518060400160405280600581526020017f35414d4654000000000000000000000000000000000000000000000000000000815250816000908051906020019062000088929190620000d7565b508060019080519060200190620000a1929190620000d7565b505050620000bb6006620000c160201b6200250c1760201c565b620001ec565b6001816000016000828254019250508190555050565b828054620000e59062000187565b90600052602060002090601f01602090048101928262000109576000855562000155565b82601f106200012457805160ff191683800117855562000155565b8280016001018555821562000155579182015b828111156200015457825182559160200191906001019062000137565b5b50905062000164919062000168565b5090565b5b808211156200018357600081600090555060010162000169565b5090565b60006002820490506001821680620001a057607f821691505b60208210811415620001b757620001b6620001bd565b5b50919050565b7f4e487b7100000000000000000000000000000000000000000000000000000000600052602260045260246000fd5b614f3780620001fc6000396000f3fe60806040526004361061012a5760003560e01c80637df124a1116100ab578063a22cb4651161006f578063a22cb465146103e5578063b88a802f1461040e578063b88d4fde14610425578063c87b56dd1461044e578063c8cf27f41461048b578063e985e9c5146104b65761012a565b80637df124a11461031d5780638b64fae11461035a578063917980391461037157806395d89b411461037b57806398da4c95146103a65761012a565b8063231f6196116100f2578063231f61961461022857806323b872dd1461025157806342842e0e1461027a5780636352211e146102a357806370a08231146102e05761012a565b806301ffc9a71461012f5780630359fea91461016c57806306fdde0314610197578063081812fc146101c2578063095ea7b3146101ff575b600080fd5b34801561013b57600080fd5b50610156600480360381019061015191906137a7565b6104f3565b6040516101639190614538565b60405180910390f35b34801561017857600080fd5b506101816105d5565b60405161018e91906149ab565b60405180910390f35b3480156101a357600080fd5b506101ac6105db565b6040516101b99190614553565b60405180910390f35b3480156101ce57600080fd5b506101e960048036038101906101e4919061384d565b61066d565b6040516101f691906144a8565b60405180910390f35b34801561020b57600080fd5b506102266004803603810190610221919061376b565b6106f2565b005b34801561023457600080fd5b5061024f600480360381019061024a91906137f9565b61080a565b005b34801561025d57600080fd5b5061027860048036038101906102739190613665565b6109ad565b005b34801561028657600080fd5b506102a1600480360381019061029c9190613665565b610a0d565b005b3480156102af57600080fd5b506102ca60048036038101906102c5919061384d565b610a2d565b6040516102d791906144a8565b60405180910390f35b3480156102ec57600080fd5b50610307600480360381019061030291906135d7565b610adf565b60405161031491906149ab565b60405180910390f35b34801561032957600080fd5b50610344600480360381019061033f91906135d7565b610b97565b60405161035191906149ab565b60405180910390f35b34801561036657600080fd5b5061036f610baf565b005b610379611267565b005b34801561038757600080fd5b50610390611767565b60405161039d9190614553565b60405180910390f35b3480156103b257600080fd5b506103cd60048036038101906103c8919061384d565b6117f9565b6040516103dc93929190614575565b60405180910390f35b3480156103f157600080fd5b5061040c6004803603810190610407919061372f565b6118b8565b005b34801561041a57600080fd5b506104236118ce565b005b34801561043157600080fd5b5061044c600480360381019061044791906136b4565b612140565b005b34801561045a57600080fd5b506104756004803603810190610470919061384d565b6121a2565b6040516104829190614553565b60405180910390f35b34801561049757600080fd5b506104a0612333565b6040516104ad919061496e565b60405180910390f35b3480156104c257600080fd5b506104dd60048036038101906104d89190613629565b612478565b6040516104ea9190614538565b60405180910390f35b60007f80ac58cd000000000000000000000000000000000000000000000000000000007bffffffffffffffffffffffffffffffffffffffffffffffffffffffff1916827bffffffffffffffffffffffffffffffffffffffffffffffffffffffff191614806105be57507f5b5e139f000000000000000000000000000000000000000000000000000000007bffffffffffffffffffffffffffffffffffffffffffffffffffffffff1916827bffffffffffffffffffffffffffffffffffffffffffffffffffffffff1916145b806105ce57506105cd82612522565b5b9050919050565b60155481565b6060600080546105ea90614ca0565b80601f016020809104026020016040519081016040528092919081815260200182805461061690614ca0565b80156106635780601f1061063857610100808354040283529160200191610663565b820191906000526020600020905b81548152906001019060200180831161064657829003601f168201915b5050505050905090565b60006106788261258c565b6106b7576040517f08c379a00000000000000000000000000000000000000000000000000000000081526004016106ae90614793565b60405180910390fd5b6004600083815260200190815260200160002060009054906101000a900473ffffffffffffffffffffffffffffffffffffffff169050919050565b60006106fd82610a2d565b90508073ffffffffffffffffffffffffffffffffffffffff168373ffffffffffffffffffffffffffffffffffffffff16141561076e576040517f08c379a0000000000000000000000000000000000000000000000000000000008152600401610765906147f3565b60405180910390fd5b8073ffffffffffffffffffffffffffffffffffffffff1661078d6125f8565b73ffffffffffffffffffffffffffffffffffffffff1614806107bc57506107bb816107b66125f8565b612478565b5b6107fb576040517f08c379a00000000000000000000000000000000000000000000000000000000081526004016107f2906146f3565b60405180910390fd5b6108058383612600565b505050565b6000600860003373ffffffffffffffffffffffffffffffffffffffff1673ffffffffffffffffffffffffffffffffffffffff168152602001908152602001600020541461088c576040517f08c379a0000000000000000000000000000000000000000000000000000000008152600401610883906146d3565b60405180910390fd5b600061089860066126b9565b90506108a433826126c7565b60405180606001604052808481526020018360ff16815260200160008152506007600083815260200190815260200160002060008201518160000190805190602001906108f2929190613383565b5060208201518160010160006101000a81548160ff021916908360ff1602179055506040820151816002015590505080600860003373ffffffffffffffffffffffffffffffffffffffff1673ffffffffffffffffffffffffffffffffffffffff1681526020019081526020016000208190555061096f600661250c565b7f0ff8d95af74a8c072247e3c2b5e73ab929e2eb87e62682f83f5707bc5bc4a75933826040516109a092919061450f565b60405180910390a1505050565b6109be6109b86125f8565b826126e5565b6109fd576040517f08c379a00000000000000000000000000000000000000000000000000000000081526004016109f490614813565b60405180910390fd5b610a088383836127c3565b505050565b610a2883838360405180602001604052806000815250612140565b505050565b6000806002600084815260200190815260200160002060009054906101000a900473ffffffffffffffffffffffffffffffffffffffff169050600073ffffffffffffffffffffffffffffffffffffffff168173ffffffffffffffffffffffffffffffffffffffff161415610ad6576040517f08c379a0000000000000000000000000000000000000000000000000000000008152600401610acd90614733565b60405180910390fd5b80915050919050565b60008073ffffffffffffffffffffffffffffffffffffffff168273ffffffffffffffffffffffffffffffffffffffff161415610b50576040517f08c379a0000000000000000000000000000000000000000000000000000000008152600401610b4790614713565b60405180910390fd5b600360008373ffffffffffffffffffffffffffffffffffffffff1673ffffffffffffffffffffffffffffffffffffffff168152602001908152602001600020549050919050565b60086020528060005260406000206000915090505481565b6000600860003373ffffffffffffffffffffffffffffffffffffffff1673ffffffffffffffffffffffffffffffffffffffff1681526020019081526020016000205411610c31576040517f08c379a0000000000000000000000000000000000000000000000000000000008152600401610c28906145f3565b60405180910390fd5b6000600973__$ff63054a5fca904aa61f9270973a47c131$__63732a2ccf9091336040518363ffffffff1660e01b8152600401610c6f9291906148ae565b60206040518083038186803b158015610c8757600080fd5b505af4158015610c9b573d6000803e3d6000fd5b505050506040513d601f19601f82011682018060405250810190610cbf9190613876565b11610cff576040517f08c379a0000000000000000000000000000000000000000000000000000000008152600401610cf6906145b3565b60405180910390fd5b6000600860003373ffffffffffffffffffffffffffffffffffffffff1673ffffffffffffffffffffffffffffffffffffffff168152602001908152602001600020549050600060076000838152602001908152602001600020905060008160010160009054906101000a900460ff1660ff169050600d811015610e6f57600573__$02df0db2a7fa1364a2877de9b5cd31a049$__633e239e1a610dbf610db0610e1086612a1f90919063ffffffff16565b42612a3590919063ffffffff16565b6040518263ffffffff1660e01b8152600401610ddb9190614990565b60206040518083038186803b158015610df357600080fd5b505af4158015610e07573d6000803e3d6000fd5b505050506040513d601f19601f82011682018060405250810190610e2b919061389f565b60ff1614610e6e576040517f08c379a0000000000000000000000000000000000000000000000000000000008152600401610e6590614753565b60405180910390fd5b5b600d8110610f83576000610e8d600c83612a4b90919063ffffffff16565b9050600573__$02df0db2a7fa1364a2877de9b5cd31a049$__633e239e1a610ed2610ec3610e1086612a1f90919063ffffffff16565b42612a4b90919063ffffffff16565b6040518263ffffffff1660e01b8152600401610eee9190614990565b60206040518083038186803b158015610f0657600080fd5b505af4158015610f1a573d6000803e3d6000fd5b505050506040513d601f19601f82011682018060405250810190610f3e919061389f565b60ff1614610f81576040517f08c379a0000000000000000000000000000000000000000000000000000000008152600401610f7890614753565b60405180910390fd5b505b6000600973__$ff63054a5fca904aa61f9270973a47c131$__63732a2ccf9091336040518363ffffffff1660e01b8152600401610fc19291906148ae565b60206040518083038186803b158015610fd957600080fd5b505af4158015610fed573d6000803e3d6000fd5b505050506040513d601f19601f820116820180604052508101906110119190613876565b9050600973__$ff63054a5fca904aa61f9270973a47c131$__63bc2b405c90913360006040518463ffffffff1660e01b8152600401611052939291906148d7565b60006040518083038186803b15801561106a57600080fd5b505af415801561107e573d6000803e3d6000fd5b5050505061109a60018460020154612a3590919063ffffffff16565b836002018190555060006111436001601173__$ff63054a5fca904aa61f9270973a47c131$__63732a2ccf9091336040518363ffffffff1660e01b81526004016110e59291906148ae565b60206040518083038186803b1580156110fd57600080fd5b505af4158015611111573d6000803e3d6000fd5b505050506040513d601f19601f820116820180604052508101906111359190613876565b612a3590919063ffffffff16565b9050601173__$ff63054a5fca904aa61f9270973a47c131$__63bc2b405c909133846040518463ffffffff1660e01b81526004016111839392919061490e565b60006040518083038186803b15801561119b57600080fd5b505af41580156111af573d6000803e3d6000fd5b5050505060003373ffffffffffffffffffffffffffffffffffffffff16836040516111d990614493565b60006040518083038185875af1925050503d8060008114611216576040519150601f19603f3d011682016040523d82523d6000602084013e61121b565b606091505b505090508061125f576040517f08c379a000000000000000000000000000000000000000000000000000000000815260040161125690614833565b60405180910390fd5b505050505050565b6000600860003373ffffffffffffffffffffffffffffffffffffffff1673ffffffffffffffffffffffffffffffffffffffff168152602001908152602001600020549050600060076000838152602001908152602001600020905060008160010160009054906101000a900460ff1660ff169050600d8110156113d857600673__$02df0db2a7fa1364a2877de9b5cd31a049$__633e239e1a611327611318610e1086612a1f90919063ffffffff16565b42612a3590919063ffffffff16565b6040518263ffffffff1660e01b81526004016113439190614990565b60206040518083038186803b15801561135b57600080fd5b505af415801561136f573d6000803e3d6000fd5b505050506040513d601f19601f82011682018060405250810190611393919061389f565b60ff1610156113d7576040517f08c379a00000000000000000000000000000000000000000000000000000000081526004016113ce906147b3565b60405180910390fd5b5b600d81106114ed5760006113f6600c83612a4b90919063ffffffff16565b9050600673__$02df0db2a7fa1364a2877de9b5cd31a049$__633e239e1a61143b61142c610e1086612a1f90919063ffffffff16565b42612a4b90919063ffffffff16565b6040518263ffffffff1660e01b81526004016114579190614990565b60206040518083038186803b15801561146f57600080fd5b505af4158015611483573d6000803e3d6000fd5b505050506040513d601f19601f820116820180604052508101906114a7919061389f565b60ff1610156114eb576040517f08c379a00000000000000000000000000000000000000000000000000000000081526004016114e2906147b3565b60405180910390fd5b505b6000600860003373ffffffffffffffffffffffffffffffffffffffff1673ffffffffffffffffffffffffffffffffffffffff168152602001908152602001600020541161156f576040517f08c379a0000000000000000000000000000000000000000000000000000000008152600401611566906145f3565b60405180910390fd5b655af3107a40003410156115b8576040517f08c379a00000000000000000000000000000000000000000000000000000000081526004016115af90614653565b60405180910390fd5b6000600973__$ff63054a5fca904aa61f9270973a47c131$__63732a2ccf9091336040518363ffffffff1660e01b81526004016115f69291906148ae565b60206040518083038186803b15801561160e57600080fd5b505af4158015611622573d6000803e3d6000fd5b505050506040513d601f19601f820116820180604052508101906116469190613876565b14611686576040517f08c379a000000000000000000000000000000000000000000000000000000000815260040161167d90614873565b60405180910390fd5b600973__$ff63054a5fca904aa61f9270973a47c131$__63bc2b405c909133346040518463ffffffff1660e01b81526004016116c49392919061490e565b60006040518083038186803b1580156116dc57600080fd5b505af41580156116f0573d6000803e3d6000fd5b50505050600d73__$ff63054a5fca904aa61f9270973a47c131$__63bc2b405c909133426040518463ffffffff1660e01b81526004016117329392919061490e565b60006040518083038186803b15801561174a57600080fd5b505af415801561175e573d6000803e3d6000fd5b50505050505050565b60606001805461177690614ca0565b80601f01602080910402602001604051908101604052809291908181526020018280546117a290614ca0565b80156117ef5780601f106117c4576101008083540402835291602001916117ef565b820191906000526020600020905b8154815290600101906020018083116117d257829003601f168201915b5050505050905090565b600760205280600052604060002060009150905080600001805461181c90614ca0565b80601f016020809104026020016040519081016040528092919081815260200182805461184890614ca0565b80156118955780601f1061186a57610100808354040283529160200191611895565b820191906000526020600020905b81548152906001019060200180831161187857829003601f168201915b5050505050908060010160009054906101000a900460ff16908060020154905083565b6118ca6118c36125f8565b8383612a61565b5050565b6000600860003373ffffffffffffffffffffffffffffffffffffffff1673ffffffffffffffffffffffffffffffffffffffff1681526020019081526020016000205411611950576040517f08c379a0000000000000000000000000000000000000000000000000000000008152600401611947906145f3565b60405180910390fd5b601e601173__$ff63054a5fca904aa61f9270973a47c131$__63732a2ccf9091336040518363ffffffff1660e01b815260040161198e9291906148ae565b60206040518083038186803b1580156119a657600080fd5b505af41580156119ba573d6000803e3d6000fd5b505050506040513d601f19601f820116820180604052508101906119de9190613876565b1015611a1f576040517f08c379a0000000000000000000000000000000000000000000000000000000008152600401611a16906145d3565b60405180910390fd5b6000805b600d73__$ff63054a5fca904aa61f9270973a47c131$__63deb3d89690916040518263ffffffff1660e01b8152600401611a5d9190614893565b60206040518083038186803b158015611a7557600080fd5b505af4158015611a89573d6000803e3d6000fd5b505050506040513d601f19601f82011682018060405250810190611aad9190613876565b811015611d28576000600d73__$ff63054a5fca904aa61f9270973a47c131$__63d1aa9e7e9091846040518363ffffffff1660e01b8152600401611af2929190614945565b60206040518083038186803b158015611b0a57600080fd5b505af4158015611b1e573d6000803e3d6000fd5b505050506040513d601f19601f82011682018060405250810190611b429190613600565b9050611bf7611b5d6018610e10612a1f90919063ffffffff16565b600d73__$ff63054a5fca904aa61f9270973a47c131$__63732a2ccf9091856040518363ffffffff1660e01b8152600401611b999291906148ae565b60206040518083038186803b158015611bb157600080fd5b505af4158015611bc5573d6000803e3d6000fd5b505050506040513d601f19601f82011682018060405250810190611be99190613876565b612a3590919063ffffffff16565b421115611d1457611c9e600973__$ff63054a5fca904aa61f9270973a47c131$__63732a2ccf9091846040518363ffffffff1660e01b8152600401611c3d9291906148ae565b60206040518083038186803b158015611c5557600080fd5b505af4158015611c69573d6000803e3d6000fd5b505050506040513d601f19601f82011682018060405250810190611c8d9190613876565b601554612a3590919063ffffffff16565b601581905550600973__$ff63054a5fca904aa61f9270973a47c131$__63bc2b405c90918360006040518463ffffffff1660e01b8152600401611ce3939291906148d7565b60006040518083038186803b158015611cfb57600080fd5b505af4158015611d0f573d6000803e3d6000fd5b505050505b508080611d2090614cd2565b915050611a23565b50600060155411611d6e576040517f08c379a0000000000000000000000000000000000000000000000000000000008152600401611d6590614853565b60405180910390fd5b60005b600973__$ff63054a5fca904aa61f9270973a47c131$__63deb3d89690916040518263ffffffff1660e01b8152600401611dab9190614893565b60206040518083038186803b158015611dc357600080fd5b505af4158015611dd7573d6000803e3d6000fd5b505050506040513d601f19601f82011682018060405250810190611dfb9190613876565b811015611f48576000601173__$ff63054a5fca904aa61f9270973a47c131$__63d1aa9e7e9091846040518363ffffffff1660e01b8152600401611e40929190614945565b60206040518083038186803b158015611e5857600080fd5b505af4158015611e6c573d6000803e3d6000fd5b505050506040513d601f19601f82011682018060405250810190611e909190613600565b9050601e601173__$ff63054a5fca904aa61f9270973a47c131$__63732a2ccf9091846040518363ffffffff1660e01b8152600401611ed09291906148ae565b60206040518083038186803b158015611ee857600080fd5b505af4158015611efc573d6000803e3d6000fd5b505050506040513d601f19601f82011682018060405250810190611f209190613876565b10611f34578280611f3090614cd2565b9350505b508080611f4090614cd2565b915050611d71565b506000611f6082601554612bce90919063ffffffff16565b9050611f7781601554612a4b90919063ffffffff16565b601581905550600061201e6001601173__$ff63054a5fca904aa61f9270973a47c131$__63732a2ccf9091336040518363ffffffff1660e01b8152600401611fc09291906148ae565b60206040518083038186803b158015611fd857600080fd5b505af4158015611fec573d6000803e3d6000fd5b505050506040513d601f19601f820116820180604052508101906120109190613876565b612a4b90919063ffffffff16565b9050601173__$ff63054a5fca904aa61f9270973a47c131$__63bc2b405c909133846040518463ffffffff1660e01b815260040161205e9392919061490e565b60006040518083038186803b15801561207657600080fd5b505af415801561208a573d6000803e3d6000fd5b5050505060003373ffffffffffffffffffffffffffffffffffffffff16836040516120b490614493565b60006040518083038185875af1925050503d80600081146120f1576040519150601f19603f3d011682016040523d82523d6000602084013e6120f6565b606091505b505090508061213a576040517f08c379a000000000000000000000000000000000000000000000000000000000815260040161213190614833565b60405180910390fd5b50505050565b61215161214b6125f8565b836126e5565b612190576040517f08c379a000000000000000000000000000000000000000000000000000000000815260040161218790614813565b60405180910390fd5b61219c84848484612be4565b50505050565b60606000600760008481526020019081526020016000206040518060600160405290816000820180546121d490614ca0565b80601f016020809104026020016040519081016040528092919081815260200182805461220090614ca0565b801561224d5780601f106122225761010080835404028352916020019161224d565b820191906000526020600020905b81548152906001019060200180831161223057829003601f168201915b505050505081526020016001820160009054906101000a900460ff1660ff1660ff1681526020016002820154815250509050600061228e8260400151612c40565b905060006122a2836020015160ff16612c40565b90506000604051806060016040528060358152602001614e8d60359139905060006122ff85600001516122d489612c40565b8487876040516020016122eb9594939291906143e4565b604051602081830303815290604052612ded565b90506000816040516020016123149190614471565b6040516020818303038152906040529050809650505050505050919050565b61233b613409565b6000600860003373ffffffffffffffffffffffffffffffffffffffff1673ffffffffffffffffffffffffffffffffffffffff168152602001908152602001600020549050600081111561246757600760008281526020019081526020016000206040518060600160405290816000820180546123b690614ca0565b80601f01602080910402602001604051908101604052809291908181526020018280546123e290614ca0565b801561242f5780601f106124045761010080835404028352916020019161242f565b820191906000526020600020905b81548152906001019060200180831161241257829003601f168201915b505050505081526020016001820160009054906101000a900460ff1660ff1660ff168152602001600282015481525050915050612475565b61246f613409565b80925050505b90565b6000600560008473ffffffffffffffffffffffffffffffffffffffff1673ffffffffffffffffffffffffffffffffffffffff16815260200190815260200160002060008373ffffffffffffffffffffffffffffffffffffffff1673ffffffffffffffffffffffffffffffffffffffff16815260200190815260200160002060009054906101000a900460ff16905092915050565b6001816000016000828254019250508190555050565b60007f01ffc9a7000000000000000000000000000000000000000000000000000000007bffffffffffffffffffffffffffffffffffffffffffffffffffffffff1916827bffffffffffffffffffffffffffffffffffffffffffffffffffffffff1916149050919050565b60008073ffffffffffffffffffffffffffffffffffffffff166002600084815260200190815260200160002060009054906101000a900473ffffffffffffffffffffffffffffffffffffffff1673ffffffffffffffffffffffffffffffffffffffff1614159050919050565b600033905090565b816004600083815260200190815260200160002060006101000a81548173ffffffffffffffffffffffffffffffffffffffff021916908373ffffffffffffffffffffffffffffffffffffffff160217905550808273ffffffffffffffffffffffffffffffffffffffff1661267383610a2d565b73ffffffffffffffffffffffffffffffffffffffff167f8c5be1e5ebec7d5bd14f71427d1e84f3dd0314c0f7b2291e5b200ac8c7c3b92560405160405180910390a45050565b600081600001549050919050565b6126e1828260405180602001604052806000815250612fab565b5050565b60006126f08261258c565b61272f576040517f08c379a0000000000000000000000000000000000000000000000000000000008152600401612726906146b3565b60405180910390fd5b600061273a83610a2d565b90508073ffffffffffffffffffffffffffffffffffffffff168473ffffffffffffffffffffffffffffffffffffffff1614806127a957508373ffffffffffffffffffffffffffffffffffffffff166127918461066d565b73ffffffffffffffffffffffffffffffffffffffff16145b806127ba57506127b98185612478565b5b91505092915050565b8273ffffffffffffffffffffffffffffffffffffffff166127e382610a2d565b73ffffffffffffffffffffffffffffffffffffffff1614612839576040517f08c379a0000000000000000000000000000000000000000000000000000000008152600401612830906147d3565b60405180910390fd5b600073ffffffffffffffffffffffffffffffffffffffff168273ffffffffffffffffffffffffffffffffffffffff1614156128a9576040517f08c379a00000000000000000000000000000000000000000000000000000000081526004016128a090614673565b60405180910390fd5b6128b4838383613006565b6128bf600082612600565b6001600360008573ffffffffffffffffffffffffffffffffffffffff1673ffffffffffffffffffffffffffffffffffffffff168152602001908152602001600020600082825461290f9190614b97565b925050819055506001600360008473ffffffffffffffffffffffffffffffffffffffff1673ffffffffffffffffffffffffffffffffffffffff16815260200190815260200160002060008282546129669190614ab6565b92505081905550816002600083815260200190815260200160002060006101000a81548173ffffffffffffffffffffffffffffffffffffffff021916908373ffffffffffffffffffffffffffffffffffffffff160217905550808273ffffffffffffffffffffffffffffffffffffffff168473ffffffffffffffffffffffffffffffffffffffff167fddf252ad1be2c89b69c2b068fc378daa952ba7f163c4a11628f55a4df523b3ef60405160405180910390a4505050565b60008183612a2d9190614b3d565b905092915050565b60008183612a439190614ab6565b905092915050565b60008183612a599190614b97565b905092915050565b8173ffffffffffffffffffffffffffffffffffffffff168373ffffffffffffffffffffffffffffffffffffffff161415612ad0576040517f08c379a0000000000000000000000000000000000000000000000000000000008152600401612ac790614693565b60405180910390fd5b80600560008573ffffffffffffffffffffffffffffffffffffffff1673ffffffffffffffffffffffffffffffffffffffff16815260200190815260200160002060008473ffffffffffffffffffffffffffffffffffffffff1673ffffffffffffffffffffffffffffffffffffffff16815260200190815260200160002060006101000a81548160ff0219169083151502179055508173ffffffffffffffffffffffffffffffffffffffff168373ffffffffffffffffffffffffffffffffffffffff167f17307eab39ab6107e8899845ad3d59bd9653f200f220920489ca2b5937696c3183604051612bc19190614538565b60405180910390a3505050565b60008183612bdc9190614b0c565b905092915050565b612bef8484846127c3565b612bfb8484848461300b565b612c3a576040517f08c379a0000000000000000000000000000000000000000000000000000000008152600401612c3190614613565b60405180910390fd5b50505050565b60606000821415612c88576040518060400160405280600181526020017f30000000000000000000000000000000000000000000000000000000000000008152509050612de8565b600082905060005b60008214612cba578080612ca390614cd2565b915050600a82612cb39190614b0c565b9150612c90565b60008167ffffffffffffffff811115612cfc577f4e487b7100000000000000000000000000000000000000000000000000000000600052604160045260246000fd5b6040519080825280601f01601f191660200182016040528015612d2e5781602001600182028036833780820191505090505b5090505b60008514612de157600182612d479190614b97565b9150600a85612d569190614d1b565b6030612d629190614ab6565b60f81b818381518110612d9e577f4e487b7100000000000000000000000000000000000000000000000000000000600052603260045260246000fd5b60200101907effffffffffffffffffffffffffffffffffffffffffffffffffffffffffffff1916908160001a905350600a85612dda9190614b0c565b9450612d32565b8093505050505b919050565b60606000825190506000811415612e165760405180602001604052806000815250915050612fa6565b60006003600283612e279190614ab6565b612e319190614b0c565b6004612e3d9190614b3d565b90506000602082612e4e9190614ab6565b67ffffffffffffffff811115612e8d577f4e487b7100000000000000000000000000000000000000000000000000000000600052604160045260246000fd5b6040519080825280601f01601f191660200182016040528015612ebf5781602001600182028036833780820191505090505b5090506000604051806060016040528060408152602001614ec2604091399050600181016020830160005b86811015612f635760038101905062ffffff818a015116603f8160121c168401518060081b905060ff603f83600c1c1686015116810190508060081b905060ff603f8360061c1686015116810190508060081b905060ff603f831686015116810190508060e01b90508084526004840193505050612eea565b506003860660018114612f7d5760028114612f8d57612f98565b613d3d60f01b6002830352612f98565b603d60f81b60018303525b508484525050819450505050505b919050565b612fb583836131a2565b612fc2600084848461300b565b613001576040517f08c379a0000000000000000000000000000000000000000000000000000000008152600401612ff890614613565b60405180910390fd5b505050565b505050565b600061302c8473ffffffffffffffffffffffffffffffffffffffff16613370565b15613195578373ffffffffffffffffffffffffffffffffffffffff1663150b7a026130556125f8565b8786866040518563ffffffff1660e01b815260040161307794939291906144c3565b602060405180830381600087803b15801561309157600080fd5b505af19250505080156130c257506040513d601f19601f820116820180604052508101906130bf91906137d0565b60015b613145573d80600081146130f2576040519150601f19603f3d011682016040523d82523d6000602084013e6130f7565b606091505b5060008151141561313d576040517f08c379a000000000000000000000000000000000000000000000000000000000815260040161313490614613565b60405180910390fd5b805181602001fd5b63150b7a0260e01b7bffffffffffffffffffffffffffffffffffffffffffffffffffffffff1916817bffffffffffffffffffffffffffffffffffffffffffffffffffffffff19161491505061319a565b600190505b949350505050565b600073ffffffffffffffffffffffffffffffffffffffff168273ffffffffffffffffffffffffffffffffffffffff161415613212576040517f08c379a000000000000000000000000000000000000000000000000000000000815260040161320990614773565b60405180910390fd5b61321b8161258c565b1561325b576040517f08c379a000000000000000000000000000000000000000000000000000000000815260040161325290614633565b60405180910390fd5b61326760008383613006565b6001600360008473ffffffffffffffffffffffffffffffffffffffff1673ffffffffffffffffffffffffffffffffffffffff16815260200190815260200160002060008282546132b79190614ab6565b92505081905550816002600083815260200190815260200160002060006101000a81548173ffffffffffffffffffffffffffffffffffffffff021916908373ffffffffffffffffffffffffffffffffffffffff160217905550808273ffffffffffffffffffffffffffffffffffffffff16600073ffffffffffffffffffffffffffffffffffffffff167fddf252ad1be2c89b69c2b068fc378daa952ba7f163c4a11628f55a4df523b3ef60405160405180910390a45050565b600080823b905060008111915050919050565b82805461338f90614ca0565b90600052602060002090601f0160209004810192826133b157600085556133f8565b82601f106133ca57805160ff19168380011785556133f8565b828001600101855582156133f8579182015b828111156133f75782518255916020019190600101906133dc565b5b509050613405919061342d565b5090565b604051806060016040528060608152602001600060ff168152602001600081525090565b5b8082111561344657600081600090555060010161342e565b5090565b600061345d613458846149f7565b6149c6565b90508281526020810184848401111561347557600080fd5b613480848285614c5e565b509392505050565b600061349b61349684614a27565b6149c6565b9050828152602081018484840111156134b357600080fd5b6134be848285614c5e565b509392505050565b6000813590506134d581614e19565b92915050565b6000815190506134ea81614e19565b92915050565b6000813590506134ff81614e30565b92915050565b60008135905061351481614e47565b92915050565b60008151905061352981614e47565b92915050565b600082601f83011261354057600080fd5b813561355084826020860161344a565b91505092915050565b600082601f83011261356a57600080fd5b813561357a848260208601613488565b91505092915050565b60008135905061359281614e5e565b92915050565b6000815190506135a781614e5e565b92915050565b6000813590506135bc81614e75565b92915050565b6000815190506135d181614e75565b92915050565b6000602082840312156135e957600080fd5b60006135f7848285016134c6565b91505092915050565b60006020828403121561361257600080fd5b6000613620848285016134db565b91505092915050565b6000806040838503121561363c57600080fd5b600061364a858286016134c6565b925050602061365b858286016134c6565b9150509250929050565b60008060006060848603121561367a57600080fd5b6000613688868287016134c6565b9350506020613699868287016134c6565b92505060406136aa86828701613583565b9150509250925092565b600080600080608085870312156136ca57600080fd5b60006136d8878288016134c6565b94505060206136e9878288016134c6565b93505060406136fa87828801613583565b925050606085013567ffffffffffffffff81111561371757600080fd5b6137238782880161352f565b91505092959194509250565b6000806040838503121561374257600080fd5b6000613750858286016134c6565b9250506020613761858286016134f0565b9150509250929050565b6000806040838503121561377e57600080fd5b600061378c858286016134c6565b925050602061379d85828601613583565b9150509250929050565b6000602082840312156137b957600080fd5b60006137c784828501613505565b91505092915050565b6000602082840312156137e257600080fd5b60006137f08482850161351a565b91505092915050565b6000806040838503121561380c57600080fd5b600083013567ffffffffffffffff81111561382657600080fd5b61383285828601613559565b9250506020613843858286016135ad565b9150509250929050565b60006020828403121561385f57600080fd5b600061386d84828501613583565b91505092915050565b60006020828403121561388857600080fd5b600061389684828501613598565b91505092915050565b6000602082840312156138b157600080fd5b60006138bf848285016135c2565b91505092915050565b6138d181614bcb565b82525050565b6138e081614bcb565b82525050565b6138ef81614bdd565b82525050565b600061390082614a57565b61390a8185614a6d565b935061391a818560208601614c6d565b61392381614e08565b840191505092915050565b61393781614c4c565b82525050565b600061394882614a62565b6139528185614a89565b9350613962818560208601614c6d565b61396b81614e08565b840191505092915050565b600061398182614a62565b61398b8185614a9a565b935061399b818560208601614c6d565b6139a481614e08565b840191505092915050565b60006139ba82614a62565b6139c48185614aab565b93506139d4818560208601614c6d565b80840191505092915050565b60006139ed600b83614aab565b91507f202d2d204e465420233a200000000000000000000000000000000000000000006000830152600b82019050919050565b6000613a2d601b83614a9a565b91507f596f7520686176656e2774207374616b656420616e797468696e6700000000006000830152602082019050919050565b6000613a6d602183614a9a565b91507f4e6f7420656e6f75676820746f6b656e7320746f20636c61696d20726577617260008301527f64000000000000000000000000000000000000000000000000000000000000006020830152604082019050919050565b6000613ad3601c83614a9a565b91507f596f75206e656564206d656d6265727368697020746f207374616b65000000006000830152602082019050919050565b6000613b13603283614a9a565b91507f4552433732313a207472616e7366657220746f206e6f6e20455243373231526560008301527f63656976657220696d706c656d656e74657200000000000000000000000000006020830152604082019050919050565b6000613b79601c83614a9a565b91507f4552433732313a20746f6b656e20616c7265616479206d696e746564000000006000830152602082019050919050565b6000613bb9601183614a9a565b91507f506c65617365207374616b65206d6f72650000000000000000000000000000006000830152602082019050919050565b6000613bf9600e83614aab565b91507f222c2022776f6b655570223a20220000000000000000000000000000000000006000830152600e82019050919050565b6000613c39602483614a9a565b91507f4552433732313a207472616e7366657220746f20746865207a65726f2061646460008301527f72657373000000000000000000000000000000000000000000000000000000006020830152604082019050919050565b6000613c9f601983614a9a565b91507f4552433732313a20617070726f766520746f2063616c6c6572000000000000006000830152602082019050919050565b6000613cdf602c83614a9a565b91507f4552433732313a206f70657261746f7220717565727920666f72206e6f6e657860008301527f697374656e7420746f6b656e00000000000000000000000000000000000000006020830152604082019050919050565b6000613d45602783614a9a565b91507f4f6e6c79206f6e65206d656d626572736869702070657220616464726573732060008301527f616c6c6f776564000000000000000000000000000000000000000000000000006020830152604082019050919050565b6000613dab603883614a9a565b91507f4552433732313a20617070726f76652063616c6c6572206973206e6f74206f7760008301527f6e6572206e6f7220617070726f76656420666f7220616c6c00000000000000006020830152604082019050919050565b6000613e11602a83614a9a565b91507f4552433732313a2062616c616e636520717565727920666f7220746865207a6560008301527f726f2061646472657373000000000000000000000000000000000000000000006020830152604082019050919050565b6000613e77602983614a9a565b91507f4552433732313a206f776e657220717565727920666f72206e6f6e657869737460008301527f656e7420746f6b656e00000000000000000000000000000000000000000000006020830152604082019050919050565b6000613edd601183614a9a565b91507f546f6f206561726c79206f72206c6174650000000000000000000000000000006000830152602082019050919050565b6000613f1d602083614a9a565b91507f4552433732313a206d696e7420746f20746865207a65726f20616464726573736000830152602082019050919050565b6000613f5d600d83614aab565b91507f222c2022696d616765223a2022000000000000000000000000000000000000006000830152600d82019050919050565b6000613f9d602c83614a9a565b91507f4552433732313a20617070726f76656420717565727920666f72206e6f6e657860008301527f697374656e7420746f6b656e00000000000000000000000000000000000000006020830152604082019050919050565b6000614003600483614aab565b91507f222c207d000000000000000000000000000000000000000000000000000000006000830152600482019050919050565b6000614043600983614a9a565b91507f546f6f206561726c7900000000000000000000000000000000000000000000006000830152602082019050919050565b6000614083602983614a9a565b91507f4552433732313a207472616e73666572206f6620746f6b656e2074686174206960008301527f73206e6f74206f776e00000000000000000000000000000000000000000000006020830152604082019050919050565b60006140e9600a83614aab565b91507f7b226e616d65223a2022000000000000000000000000000000000000000000006000830152600a82019050919050565b6000614129602183614a9a565b91507f4552433732313a20617070726f76616c20746f2063757272656e74206f776e6560008301527f72000000000000000000000000000000000000000000000000000000000000006020830152604082019050919050565b600061418f601d83614aab565b91507f646174613a6170706c69636174696f6e2f6a736f6e3b6261736536342c0000006000830152601d82019050919050565b60006141cf600083614a7e565b9150600082019050919050565b60006141e9603183614a9a565b91507f4552433732313a207472616e736665722063616c6c6572206973206e6f74206f60008301527f776e6572206e6f7220617070726f7665640000000000000000000000000000006020830152604082019050919050565b600061424f601483614a9a565b91507f4661696c656420746f2073656e64204d617469630000000000000000000000006000830152602082019050919050565b600061428f601583614a9a565b91507f5265776172647320506f6f6c20656d707479203a2800000000000000000000006000830152602082019050919050565b60006142cf601083614aab565b91507f222c202274696d655a6f6e65223a2022000000000000000000000000000000006000830152601082019050919050565b600061430f601783614a9a565b91507f596f75206861766520616c7265616479207374616b65640000000000000000006000830152602082019050919050565b8082525050565b60006060830160008301518482036000860152614366828261393d565b915050602083015161437b60208601826143c6565b50604083015161438e6040860182614399565b508091505092915050565b6143a281614c35565b82525050565b6143b181614c35565b82525050565b6143c081614c35565b82525050565b6143cf81614c3f565b82525050565b6143de81614c3f565b82525050565b60006143ef826140dc565b91506143fb82886139af565b9150614406826139e0565b915061441282876139af565b915061441d82613f50565b915061442982866139af565b915061443482613bec565b915061444082856139af565b915061444b826142c2565b915061445782846139af565b915061446282613ff6565b91508190509695505050505050565b600061447c82614182565b915061448882846139af565b915081905092915050565b600061449e826141c2565b9150819050919050565b60006020820190506144bd60008301846138c8565b92915050565b60006080820190506144d860008301876138c8565b6144e560208301866138c8565b6144f260408301856143a8565b818103606083015261450481846138f5565b905095945050505050565b600060408201905061452460008301856138c8565b61453160208301846143a8565b9392505050565b600060208201905061454d60008301846138e6565b92915050565b6000602082019050818103600083015261456d8184613976565b905092915050565b6000606082019050818103600083015261458f8186613976565b905061459e60208301856143d5565b6145ab60408301846143a8565b949350505050565b600060208201905081810360008301526145cc81613a20565b9050919050565b600060208201905081810360008301526145ec81613a60565b9050919050565b6000602082019050818103600083015261460c81613ac6565b9050919050565b6000602082019050818103600083015261462c81613b06565b9050919050565b6000602082019050818103600083015261464c81613b6c565b9050919050565b6000602082019050818103600083015261466c81613bac565b9050919050565b6000602082019050818103600083015261468c81613c2c565b9050919050565b600060208201905081810360008301526146ac81613c92565b9050919050565b600060208201905081810360008301526146cc81613cd2565b9050919050565b600060208201905081810360008301526146ec81613d38565b9050919050565b6000602082019050818103600083015261470c81613d9e565b9050919050565b6000602082019050818103600083015261472c81613e04565b9050919050565b6000602082019050818103600083015261474c81613e6a565b9050919050565b6000602082019050818103600083015261476c81613ed0565b9050919050565b6000602082019050818103600083015261478c81613f10565b9050919050565b600060208201905081810360008301526147ac81613f90565b9050919050565b600060208201905081810360008301526147cc81614036565b9050919050565b600060208201905081810360008301526147ec81614076565b9050919050565b6000602082019050818103600083015261480c8161411c565b9050919050565b6000602082019050818103600083015261482c816141dc565b9050919050565b6000602082019050818103600083015261484c81614242565b9050919050565b6000602082019050818103600083015261486c81614282565b9050919050565b6000602082019050818103600083015261488c81614302565b9050919050565b60006020820190506148a86000830184614342565b92915050565b60006040820190506148c36000830185614342565b6148d060208301846138d7565b9392505050565b60006060820190506148ec6000830186614342565b6148f960208301856138d7565b614906604083018461392e565b949350505050565b60006060820190506149236000830186614342565b61493060208301856138d7565b61493d60408301846143b7565b949350505050565b600060408201905061495a6000830185614342565b61496760208301846143b7565b9392505050565b600060208201905081810360008301526149888184614349565b905092915050565b60006020820190506149a560008301846143b7565b92915050565b60006020820190506149c060008301846143a8565b92915050565b6000604051905081810181811067ffffffffffffffff821117156149ed576149ec614dd9565b5b8060405250919050565b600067ffffffffffffffff821115614a1257614a11614dd9565b5b601f19601f8301169050602081019050919050565b600067ffffffffffffffff821115614a4257614a41614dd9565b5b601f19601f8301169050602081019050919050565b600081519050919050565b600081519050919050565b600082825260208201905092915050565b600081905092915050565b600082825260208201905092915050565b600082825260208201905092915050565b600081905092915050565b6000614ac182614c35565b9150614acc83614c35565b9250827fffffffffffffffffffffffffffffffffffffffffffffffffffffffffffffffff03821115614b0157614b00614d4c565b5b828201905092915050565b6000614b1782614c35565b9150614b2283614c35565b925082614b3257614b31614d7b565b5b828204905092915050565b6000614b4882614c35565b9150614b5383614c35565b9250817fffffffffffffffffffffffffffffffffffffffffffffffffffffffffffffffff0483118215151615614b8c57614b8b614d4c565b5b828202905092915050565b6000614ba282614c35565b9150614bad83614c35565b925082821015614bc057614bbf614d4c565b5b828203905092915050565b6000614bd682614c15565b9050919050565b60008115159050919050565b60007fffffffff0000000000000000000000000000000000000000000000000000000082169050919050565b600073ffffffffffffffffffffffffffffffffffffffff82169050919050565b6000819050919050565b600060ff82169050919050565b6000614c5782614c35565b9050919050565b82818337600083830152505050565b60005b83811015614c8b578082015181840152602081019050614c70565b83811115614c9a576000848401525b50505050565b60006002820490506001821680614cb857607f821691505b60208210811415614ccc57614ccb614daa565b5b50919050565b6000614cdd82614c35565b91507fffffffffffffffffffffffffffffffffffffffffffffffffffffffffffffffff821415614d1057614d0f614d4c565b5b600182019050919050565b6000614d2682614c35565b9150614d3183614c35565b925082614d4157614d40614d7b565b5b828206905092915050565b7f4e487b7100000000000000000000000000000000000000000000000000000000600052601160045260246000fd5b7f4e487b7100000000000000000000000000000000000000000000000000000000600052601260045260246000fd5b7f4e487b7100000000000000000000000000000000000000000000000000000000600052602260045260246000fd5b7f4e487b7100000000000000000000000000000000000000000000000000000000600052604160045260246000fd5b6000601f19601f8301169050919050565b614e2281614bcb565b8114614e2d57600080fd5b50565b614e3981614bdd565b8114614e4457600080fd5b50565b614e5081614be9565b8114614e5b57600080fd5b50565b614e6781614c35565b8114614e7257600080fd5b50565b614e7e81614c3f565b8114614e8957600080fd5b5056fe697066733a2f2f516d656936754358455764424a686e664331516278476364536f325463514766674376454d576b734d62515a6e754142434445464748494a4b4c4d4e4f505152535455565758595a6162636465666768696a6b6c6d6e6f707172737475767778797a303132333435363738392b2fa26469706673582212202588b1971ca88a0dc6b2ae83d75114b83f2ec03bd4761fa4400aa726daaa1e6764736f6c63430008000033",
  "linkReferences": {
    "contracts/libraries/CheckTime.sol": {
      "CheckTime": [
        {
          "length": 20,
          "start": 3964
        },
        {
          "length": 20,
          "start": 4239
        },
        {
          "length": 20,
          "start": 5348
        },
        {
          "length": 20,
          "start": 5624
        }
      ]
    },
    "contracts/libraries/IterableMapping.sol": {
      "IterableMapping": [
        {
          "length": 20,
          "start": 3635
        },
        {
          "length": 20,
          "start": 4485
        },
        {
          "length": 20,
          "start": 4627
        },
        {
          "length": 20,
          "start": 4777
        },
        {
          "length": 20,
          "start": 4933
        },
        {
          "length": 20,
          "start": 6074
        },
        {
          "length": 20,
          "start": 6278
        },
        {
          "length": 20,
          "start": 6388
        },
        {
          "length": 20,
          "start": 6994
        },
        {
          "length": 20,
          "start": 7203
        },
        {
          "length": 20,
          "start": 7350
        },
        {
          "length": 20,
          "start": 7517
        },
        {
          "length": 20,
          "start": 7681
        },
        {
          "length": 20,
          "start": 7844
        },
        {
          "length": 20,
          "start": 8049
        },
        {
          "length": 20,
          "start": 8196
        },
        {
          "length": 20,
          "start": 8340
        },
        {
          "length": 20,
          "start": 8580
        },
        {
          "length": 20,
          "start": 8736
        }
      ]
    }
  },
  "deployedLinkReferences": {
    "contracts/libraries/CheckTime.sol": {
      "CheckTime": [
        {
          "length": 20,
          "start": 3456
        },
        {
          "length": 20,
          "start": 3731
        },
        {
          "length": 20,
          "start": 4840
        },
        {
          "length": 20,
          "start": 5116
        }
      ]
    },
    "contracts/libraries/IterableMapping.sol": {
      "IterableMapping": [
        {
          "length": 20,
          "start": 3127
        },
        {
          "length": 20,
          "start": 3977
        },
        {
          "length": 20,
          "start": 4119
        },
        {
          "length": 20,
          "start": 4269
        },
        {
          "length": 20,
          "start": 4425
        },
        {
          "length": 20,
          "start": 5566
        },
        {
          "length": 20,
          "start": 5770
        },
        {
          "length": 20,
          "start": 5880
        },
        {
          "length": 20,
          "start": 6486
        },
        {
          "length": 20,
          "start": 6695
        },
        {
          "length": 20,
          "start": 6842
        },
        {
          "length": 20,
          "start": 7009
        },
        {
          "length": 20,
          "start": 7173
        },
        {
          "length": 20,
          "start": 7336
        },
        {
          "length": 20,
          "start": 7541
        },
        {
          "length": 20,
          "start": 7688
        },
        {
          "length": 20,
          "start": 7832
        },
        {
          "length": 20,
          "start": 8072
        },
        {
          "length": 20,
          "start": 8228
        }
      ]
    }
  }
}